{
  "_format": "hh-sol-artifact-1",
  "contractName": "Seller",
  "sourceName": "contracts/Seller.sol",
  "abi": [
    {
      "inputs": [
        {
          "internalType": "address",
          "name": "_admin",
          "type": "address"
        },
        {
          "internalType": "contract IERC20",
          "name": "_daiInstance",
          "type": "address"
        },
        {
          "internalType": "contract IERC721Enumerable",
          "name": "_goldenNFTInstance",
          "type": "address"
        },
        {
          "internalType": "contract IERC721Enumerable",
          "name": "_guestlistNFTInstance",
          "type": "address"
        }
      ],
      "stateMutability": "nonpayable",
      "type": "constructor"
    },
    {
      "anonymous": false,
      "inputs": [
        {
          "indexed": true,
          "internalType": "address",
          "name": "to",
          "type": "address"
        },
        {
          "indexed": true,
          "internalType": "uint256",
          "name": "tokenId",
          "type": "uint256"
        }
      ],
      "name": "BoughtGoldenNFT",
      "type": "event"
    },
    {
      "anonymous": false,
      "inputs": [
        {
          "indexed": true,
          "internalType": "address",
          "name": "to",
          "type": "address"
        },
        {
          "indexed": true,
          "internalType": "uint256",
          "name": "tokenId",
          "type": "uint256"
        }
      ],
      "name": "BoughtGuestlistNFT",
      "type": "event"
    },
    {
      "inputs": [],
      "name": "DOLLAR",
      "outputs": [
        {
          "internalType": "uint256",
          "name": "",
          "type": "uint256"
        }
      ],
      "stateMutability": "view",
      "type": "function"
    },
    {
      "inputs": [],
      "name": "MAX_UINT256",
      "outputs": [
        {
          "internalType": "uint256",
          "name": "",
          "type": "uint256"
        }
      ],
      "stateMutability": "view",
      "type": "function"
    },
    {
      "inputs": [],
      "name": "MIN_PRICE_GOLDEN_NFT",
      "outputs": [
        {
          "internalType": "uint256",
          "name": "",
          "type": "uint256"
        }
      ],
      "stateMutability": "view",
      "type": "function"
    },
    {
      "inputs": [],
      "name": "MIN_PRICE_GUESTLIST_NFT",
      "outputs": [
        {
          "internalType": "uint256",
          "name": "",
          "type": "uint256"
        }
      ],
      "stateMutability": "view",
      "type": "function"
    },
    {
      "inputs": [],
      "name": "admin",
      "outputs": [
        {
          "internalType": "address",
          "name": "",
          "type": "address"
        }
      ],
      "stateMutability": "view",
      "type": "function"
    },
    {
      "inputs": [
        {
          "internalType": "uint256",
          "name": "amount",
          "type": "uint256"
        }
      ],
      "name": "buyGoldenNFT",
      "outputs": [],
      "stateMutability": "nonpayable",
      "type": "function"
    },
    {
      "inputs": [
        {
          "internalType": "uint256",
          "name": "amount",
          "type": "uint256"
        }
      ],
      "name": "buyGuestlistNFT",
      "outputs": [],
      "stateMutability": "nonpayable",
      "type": "function"
    },
    {
      "inputs": [],
      "name": "daiInstance",
      "outputs": [
        {
          "internalType": "contract IERC20",
          "name": "",
          "type": "address"
        }
      ],
      "stateMutability": "view",
      "type": "function"
    },
    {
      "inputs": [],
      "name": "goldenNFTInstance",
      "outputs": [
        {
          "internalType": "contract IERC721Enumerable",
          "name": "",
          "type": "address"
        }
      ],
      "stateMutability": "view",
      "type": "function"
    },
    {
      "inputs": [],
      "name": "guestlistNFTInstance",
      "outputs": [
        {
          "internalType": "contract IERC721Enumerable",
          "name": "",
          "type": "address"
        }
      ],
      "stateMutability": "view",
      "type": "function"
    },
    {
      "inputs": [
        {
          "internalType": "address",
          "name": "",
          "type": "address"
        },
        {
          "internalType": "address",
          "name": "",
          "type": "address"
        },
        {
          "internalType": "uint256",
          "name": "",
          "type": "uint256"
        },
        {
          "internalType": "bytes",
          "name": "",
          "type": "bytes"
        }
      ],
      "name": "onERC721Received",
      "outputs": [
        {
          "internalType": "bytes4",
          "name": "",
          "type": "bytes4"
        }
      ],
      "stateMutability": "nonpayable",
      "type": "function"
    }
  ],
  "bytecode": "0x60806040523480156200001157600080fd5b5060405162001978380380620019788339818101604052810190620000379190620004b2565b600073ffffffffffffffffffffffffffffffffffffffff168473ffffffffffffffffffffffffffffffffffffffff161415620000aa576040517f08c379a0000000000000000000000000000000000000000000000000000000008152600401620000a19062000625565b60405180910390fd5b836000806101000a81548173ffffffffffffffffffffffffffffffffffffffff021916908373ffffffffffffffffffffffffffffffffffffffff16021790555082600160006101000a81548173ffffffffffffffffffffffffffffffffffffffff021916908373ffffffffffffffffffffffffffffffffffffffff16021790555081600260006101000a81548173ffffffffffffffffffffffffffffffffffffffff021916908373ffffffffffffffffffffffffffffffffffffffff16021790555080600360006101000a81548173ffffffffffffffffffffffffffffffffffffffff021916908373ffffffffffffffffffffffffffffffffffffffff160217905550600160009054906101000a900473ffffffffffffffffffffffffffffffffffffffff1673ffffffffffffffffffffffffffffffffffffffff1663095ea7b360008054906101000a900473ffffffffffffffffffffffffffffffffffffffff167fffffffffffffffffffffffffffffffffffffffffffffffffffffffffffffffff6040518363ffffffff1660e01b81526004016200024c929190620005f8565b602060405180830381600087803b1580156200026757600080fd5b505af11580156200027c573d6000803e3d6000fd5b505050506040513d601f19601f82011682018060405250810190620002a291906200051e565b620002e4576040517f08c379a0000000000000000000000000000000000000000000000000000000008152600401620002db9062000647565b60405180910390fd5b600260009054906101000a900473ffffffffffffffffffffffffffffffffffffffff1673ffffffffffffffffffffffffffffffffffffffff1663a22cb46560008054906101000a900473ffffffffffffffffffffffffffffffffffffffff1660016040518363ffffffff1660e01b815260040162000364929190620005cb565b600060405180830381600087803b1580156200037f57600080fd5b505af115801562000394573d6000803e3d6000fd5b50505050600360009054906101000a900473ffffffffffffffffffffffffffffffffffffffff1673ffffffffffffffffffffffffffffffffffffffff1663a22cb46560008054906101000a900473ffffffffffffffffffffffffffffffffffffffff1660016040518363ffffffff1660e01b815260040162000418929190620005cb565b600060405180830381600087803b1580156200043357600080fd5b505af115801562000448573d6000803e3d6000fd5b5050505050505050620007a6565b60008151905062000467816200073e565b92915050565b6000815190506200047e8162000758565b92915050565b600081519050620004958162000772565b92915050565b600081519050620004ac816200078c565b92915050565b60008060008060808587031215620004c957600080fd5b6000620004d98782880162000456565b9450506020620004ec8782880162000484565b9350506040620004ff878288016200049b565b925050606062000512878288016200049b565b91505092959194509250565b6000602082840312156200053157600080fd5b600062000541848285016200046d565b91505092915050565b62000555816200067a565b82525050565b62000566816200068e565b82525050565b60006200057b600f8362000669565b91506200058882620006ec565b602082019050919050565b6000620005a2600f8362000669565b9150620005af8262000715565b602082019050919050565b620005c581620006e2565b82525050565b6000604082019050620005e260008301856200054a565b620005f160208301846200055b565b9392505050565b60006040820190506200060f60008301856200054a565b6200061e6020830184620005ba565b9392505050565b6000602082019050818103600083015262000640816200056c565b9050919050565b60006020820190508181036000830152620006628162000593565b9050919050565b600082825260208201905092915050565b60006200068782620006c2565b9050919050565b60008115159050919050565b6000620006a7826200067a565b9050919050565b6000620006bb826200067a565b9050919050565b600073ffffffffffffffffffffffffffffffffffffffff82169050919050565b6000819050919050565b7f7a65726f2061646d696e20616464720000000000000000000000000000000000600082015250565b7f617070726f76616c206661696c65640000000000000000000000000000000000600082015250565b62000749816200067a565b81146200075557600080fd5b50565b62000763816200068e565b81146200076f57600080fd5b50565b6200077d816200069a565b81146200078957600080fd5b50565b6200079781620006ae565b8114620007a357600080fd5b50565b6111c280620007b66000396000f3fe608060405234801561001057600080fd5b50600436106100a95760003560e01c806362535fb21161007157806362535fb2146101545780638c2c104514610172578063b4839f741461018e578063b4c42f37146101ac578063b8b5b1f9146101ca578063f851a440146101e8576100a9565b8063150b7a02146100ae57806333a581d2146100de5780634035b741146100fc5780634369ad231461011a578063599577c014610138575b600080fd5b6100c860048036038101906100c39190610b8e565b610206565b6040516100d59190610dc2565b60405180910390f35b6100e661021a565b6040516100f39190610e73565b60405180910390f35b61010461023e565b6040516101119190610e73565b60405180910390f35b610122610257565b60405161012f9190610e73565b60405180910390f35b610152600480360381019061014d9190610c32565b610263565b005b61015c610643565b6040516101699190610df8565b60405180910390f35b61018c60048036038101906101879190610c32565b610669565b005b610196610a49565b6040516101a39190610e73565b60405180910390f35b6101b4610a62565b6040516101c19190610ddd565b60405180910390f35b6101d2610a88565b6040516101df9190610df8565b60405180910390f35b6101f0610aae565b6040516101fd9190610d47565b60405180910390f35b600063150b7a0260e01b9050949350505050565b7fffffffffffffffffffffffffffffffffffffffffffffffffffffffffffffffff81565b670de0b6b3a764000061c3506102549190610ef5565b81565b670de0b6b3a764000081565b6000600260009054906101000a900473ffffffffffffffffffffffffffffffffffffffff1673ffffffffffffffffffffffffffffffffffffffff166370a08231306040518263ffffffff1660e01b81526004016102c09190610d47565b60206040518083038186803b1580156102d857600080fd5b505afa1580156102ec573d6000803e3d6000fd5b505050506040513d601f19601f820116820180604052508101906103109190610c5b565b11610350576040517f08c379a000000000000000000000000000000000000000000000000000000000815260040161034790610e33565b60405180910390fd5b670de0b6b3a764000061c3506103669190610ef5565b8110156103a8576040517f08c379a000000000000000000000000000000000000000000000000000000000815260040161039f90610e13565b60405180910390fd5b6000600260009054906101000a900473ffffffffffffffffffffffffffffffffffffffff1673ffffffffffffffffffffffffffffffffffffffff16632f745c593060006040518363ffffffff1660e01b8152600401610408929190610d99565b60206040518083038186803b15801561042057600080fd5b505afa158015610434573d6000803e3d6000fd5b505050506040513d601f19601f820116820180604052508101906104589190610c5b565b9050803373ffffffffffffffffffffffffffffffffffffffff167fbf905f87cc751bf97c03d31f613bf9bc054154c9ff879890396a55ebdcce10c860405160405180910390a3600160009054906101000a900473ffffffffffffffffffffffffffffffffffffffff1673ffffffffffffffffffffffffffffffffffffffff166323b872dd3360008054906101000a900473ffffffffffffffffffffffffffffffffffffffff16856040518463ffffffff1660e01b815260040161051d93929190610d62565b602060405180830381600087803b15801561053757600080fd5b505af115801561054b573d6000803e3d6000fd5b505050506040513d601f19601f8201168201806040525081019061056f9190610c09565b6105ae576040517f08c379a00000000000000000000000000000000000000000000000000000000081526004016105a590610e53565b60405180910390fd5b600260009054906101000a900473ffffffffffffffffffffffffffffffffffffffff1673ffffffffffffffffffffffffffffffffffffffff166342842e0e3033846040518463ffffffff1660e01b815260040161060d93929190610d62565b600060405180830381600087803b15801561062757600080fd5b505af115801561063b573d6000803e3d6000fd5b505050505050565b600360009054906101000a900473ffffffffffffffffffffffffffffffffffffffff1681565b6000600360009054906101000a900473ffffffffffffffffffffffffffffffffffffffff1673ffffffffffffffffffffffffffffffffffffffff166370a08231306040518263ffffffff1660e01b81526004016106c69190610d47565b60206040518083038186803b1580156106de57600080fd5b505afa1580156106f2573d6000803e3d6000fd5b505050506040513d601f19601f820116820180604052508101906107169190610c5b565b11610756576040517f08c379a000000000000000000000000000000000000000000000000000000000815260040161074d90610e33565b60405180910390fd5b670de0b6b3a76400006101f461076c9190610ef5565b8110156107ae576040517f08c379a00000000000000000000000000000000000000000000000000000000081526004016107a590610e13565b60405180910390fd5b6000600360009054906101000a900473ffffffffffffffffffffffffffffffffffffffff1673ffffffffffffffffffffffffffffffffffffffff16632f745c593060006040518363ffffffff1660e01b815260040161080e929190610d99565b60206040518083038186803b15801561082657600080fd5b505afa15801561083a573d6000803e3d6000fd5b505050506040513d601f19601f8201168201806040525081019061085e9190610c5b565b9050803373ffffffffffffffffffffffffffffffffffffffff167f2717d0f4001c47db757229e11837776e09cd3f6e082d5ac84fe02627bac7ba1f60405160405180910390a3600160009054906101000a900473ffffffffffffffffffffffffffffffffffffffff1673ffffffffffffffffffffffffffffffffffffffff166323b872dd3360008054906101000a900473ffffffffffffffffffffffffffffffffffffffff16856040518463ffffffff1660e01b815260040161092393929190610d62565b602060405180830381600087803b15801561093d57600080fd5b505af1158015610951573d6000803e3d6000fd5b505050506040513d601f19601f820116820180604052508101906109759190610c09565b6109b4576040517f08c379a00000000000000000000000000000000000000000000000000000000081526004016109ab90610e53565b60405180910390fd5b600360009054906101000a900473ffffffffffffffffffffffffffffffffffffffff1673ffffffffffffffffffffffffffffffffffffffff166342842e0e3033846040518463ffffffff1660e01b8152600401610a1393929190610d62565b600060405180830381600087803b158015610a2d57600080fd5b505af1158015610a41573d6000803e3d6000fd5b505050505050565b670de0b6b3a76400006101f4610a5f9190610ef5565b81565b600160009054906101000a900473ffffffffffffffffffffffffffffffffffffffff1681565b600260009054906101000a900473ffffffffffffffffffffffffffffffffffffffff1681565b60008054906101000a900473ffffffffffffffffffffffffffffffffffffffff1681565b6000610ae5610ae084610eb3565b610e8e565b905082815260208101848484011115610afd57600080fd5b610b0884828561101d565b509392505050565b600081359050610b1f81611147565b92915050565b600081519050610b348161115e565b92915050565b600082601f830112610b4b57600080fd5b8135610b5b848260208601610ad2565b91505092915050565b600081359050610b7381611175565b92915050565b600081519050610b8881611175565b92915050565b60008060008060808587031215610ba457600080fd5b6000610bb287828801610b10565b9450506020610bc387828801610b10565b9350506040610bd487828801610b64565b925050606085013567ffffffffffffffff811115610bf157600080fd5b610bfd87828801610b3a565b91505092959194509250565b600060208284031215610c1b57600080fd5b6000610c2984828501610b25565b91505092915050565b600060208284031215610c4457600080fd5b6000610c5284828501610b64565b91505092915050565b600060208284031215610c6d57600080fd5b6000610c7b84828501610b79565b91505092915050565b610c8d81610f4f565b82525050565b610c9c81610f6d565b82525050565b610cab81610fc3565b82525050565b610cba81610fe7565b82525050565b610cc98161100b565b82525050565b6000610cdc600e83610ee4565b9150610ce7826110cc565b602082019050919050565b6000610cff600883610ee4565b9150610d0a826110f5565b602082019050919050565b6000610d22600e83610ee4565b9150610d2d8261111e565b602082019050919050565b610d4181610fb9565b82525050565b6000602082019050610d5c6000830184610c84565b92915050565b6000606082019050610d776000830186610c84565b610d846020830185610c84565b610d916040830184610d38565b949350505050565b6000604082019050610dae6000830185610c84565b610dbb6020830184610cc0565b9392505050565b6000602082019050610dd76000830184610c93565b92915050565b6000602082019050610df26000830184610ca2565b92915050565b6000602082019050610e0d6000830184610cb1565b92915050565b60006020820190508181036000830152610e2c81610ccf565b9050919050565b60006020820190508181036000830152610e4c81610cf2565b9050919050565b60006020820190508181036000830152610e6c81610d15565b9050919050565b6000602082019050610e886000830184610d38565b92915050565b6000610e98610ea9565b9050610ea4828261102c565b919050565b6000604051905090565b600067ffffffffffffffff821115610ece57610ecd61108c565b5b610ed7826110bb565b9050602081019050919050565b600082825260208201905092915050565b6000610f0082610fb9565b9150610f0b83610fb9565b9250817fffffffffffffffffffffffffffffffffffffffffffffffffffffffffffffffff0483118215151615610f4457610f4361105d565b5b828202905092915050565b6000610f5a82610f99565b9050919050565b60008115159050919050565b60007fffffffff0000000000000000000000000000000000000000000000000000000082169050919050565b600073ffffffffffffffffffffffffffffffffffffffff82169050919050565b6000819050919050565b6000610fce82610fd5565b9050919050565b6000610fe082610f99565b9050919050565b6000610ff282610ff9565b9050919050565b600061100482610f99565b9050919050565b600061101682610fb9565b9050919050565b82818337600083830152505050565b611035826110bb565b810181811067ffffffffffffffff821117156110545761105361108c565b5b80604052505050565b7f4e487b7100000000000000000000000000000000000000000000000000000000600052601160045260246000fd5b7f4e487b7100000000000000000000000000000000000000000000000000000000600052604160045260246000fd5b6000601f19601f8301169050919050565b7f616d6f756e7420746f6f206c6f77000000000000000000000000000000000000600082015250565b7f736f6c64206f7574000000000000000000000000000000000000000000000000600082015250565b7f7061796d656e74206661696c6564000000000000000000000000000000000000600082015250565b61115081610f4f565b811461115b57600080fd5b50565b61116781610f61565b811461117257600080fd5b50565b61117e81610fb9565b811461118957600080fd5b5056fea2646970667358221220aee66d58511d9155927694fdd5200ea822c9adf0f7e546baf8efc6ae546ae15564736f6c63430008040033",
  "linkReferences": {},
  "deployedLinkReferences": {}
}