{
  "_format": "hh-sol-artifact-1",
  "contractName": "Seller",
  "sourceName": "contracts/Seller.sol",
  "abi": [
    {
      "inputs": [
        {
          "internalType": "address",
          "name": "_admin",
          "type": "address"
        },
        {
          "internalType": "contract IERC20",
          "name": "_daiInstance",
          "type": "address"
        },
        {
          "internalType": "contract IERC721Enumerable",
          "name": "_goldenNFTInstance",
          "type": "address"
        },
        {
          "internalType": "contract IERC721Enumerable",
          "name": "_guestlistNFTInstance",
          "type": "address"
        }
      ],
      "stateMutability": "nonpayable",
      "type": "constructor"
    },
    {
      "anonymous": false,
      "inputs": [
        {
          "indexed": true,
          "internalType": "address",
          "name": "to",
          "type": "address"
        },
        {
          "indexed": true,
          "internalType": "uint256",
          "name": "tokenId",
          "type": "uint256"
        }
      ],
      "name": "BoughtGoldenNFT",
      "type": "event"
    },
    {
      "anonymous": false,
      "inputs": [
        {
          "indexed": true,
          "internalType": "address",
          "name": "to",
          "type": "address"
        },
        {
          "indexed": true,
          "internalType": "uint256",
          "name": "tokenId",
          "type": "uint256"
        }
      ],
      "name": "BoughtGuestlistNFT",
      "type": "event"
    },
    {
      "inputs": [],
      "name": "DOLLAR",
      "outputs": [
        {
          "internalType": "uint256",
          "name": "",
          "type": "uint256"
        }
      ],
      "stateMutability": "view",
      "type": "function"
    },
    {
      "inputs": [],
      "name": "MAX_UINT256",
      "outputs": [
        {
          "internalType": "uint256",
          "name": "",
          "type": "uint256"
        }
      ],
      "stateMutability": "view",
      "type": "function"
    },
    {
      "inputs": [],
      "name": "PRICE_GOLDEN_NFT",
      "outputs": [
        {
          "internalType": "uint256",
          "name": "",
          "type": "uint256"
        }
      ],
      "stateMutability": "view",
      "type": "function"
    },
    {
      "inputs": [],
      "name": "PRICE_GUESTLIST_NFT",
      "outputs": [
        {
          "internalType": "uint256",
          "name": "",
          "type": "uint256"
        }
      ],
      "stateMutability": "view",
      "type": "function"
    },
    {
      "inputs": [],
      "name": "admin",
      "outputs": [
        {
          "internalType": "address",
          "name": "",
          "type": "address"
        }
      ],
      "stateMutability": "view",
      "type": "function"
    },
    {
      "inputs": [],
      "name": "buyGoldenNFT",
      "outputs": [],
      "stateMutability": "nonpayable",
      "type": "function"
    },
    {
      "inputs": [],
      "name": "buyGuestlistNFT",
      "outputs": [],
      "stateMutability": "nonpayable",
      "type": "function"
    },
    {
      "inputs": [],
      "name": "daiInstance",
      "outputs": [
        {
          "internalType": "contract IERC20",
          "name": "",
          "type": "address"
        }
      ],
      "stateMutability": "view",
      "type": "function"
    },
    {
      "inputs": [],
      "name": "goldenNFTInstance",
      "outputs": [
        {
          "internalType": "contract IERC721Enumerable",
          "name": "",
          "type": "address"
        }
      ],
      "stateMutability": "view",
      "type": "function"
    },
    {
      "inputs": [],
      "name": "guestlistNFTInstance",
      "outputs": [
        {
          "internalType": "contract IERC721Enumerable",
          "name": "",
          "type": "address"
        }
      ],
      "stateMutability": "view",
      "type": "function"
    },
    {
      "inputs": [
        {
          "internalType": "address",
          "name": "",
          "type": "address"
        },
        {
          "internalType": "address",
          "name": "",
          "type": "address"
        },
        {
          "internalType": "uint256",
          "name": "",
          "type": "uint256"
        },
        {
          "internalType": "bytes",
          "name": "",
          "type": "bytes"
        }
      ],
      "name": "onERC721Received",
      "outputs": [
        {
          "internalType": "bytes4",
          "name": "",
          "type": "bytes4"
        }
      ],
      "stateMutability": "nonpayable",
      "type": "function"
    }
  ],
  "bytecode": "0x60806040523480156200001157600080fd5b506040516200168e3803806200168e8339818101604052810190620000379190620003fe565b836000806101000a81548173ffffffffffffffffffffffffffffffffffffffff021916908373ffffffffffffffffffffffffffffffffffffffff16021790555082600160006101000a81548173ffffffffffffffffffffffffffffffffffffffff021916908373ffffffffffffffffffffffffffffffffffffffff16021790555081600260006101000a81548173ffffffffffffffffffffffffffffffffffffffff021916908373ffffffffffffffffffffffffffffffffffffffff16021790555080600360006101000a81548173ffffffffffffffffffffffffffffffffffffffff021916908373ffffffffffffffffffffffffffffffffffffffff160217905550600160009054906101000a900473ffffffffffffffffffffffffffffffffffffffff1673ffffffffffffffffffffffffffffffffffffffff1663095ea7b360008054906101000a900473ffffffffffffffffffffffffffffffffffffffff167fffffffffffffffffffffffffffffffffffffffffffffffffffffffffffffffff6040518363ffffffff1660e01b8152600401620001d9929190620004f6565b602060405180830381600087803b158015620001f457600080fd5b505af115801562000209573d6000803e3d6000fd5b505050506040513d601f19601f820116820180604052508101906200022f91906200046a565b50600260009054906101000a900473ffffffffffffffffffffffffffffffffffffffff1673ffffffffffffffffffffffffffffffffffffffff1663a22cb46560008054906101000a900473ffffffffffffffffffffffffffffffffffffffff1660016040518363ffffffff1660e01b8152600401620002b0929190620004c9565b600060405180830381600087803b158015620002cb57600080fd5b505af1158015620002e0573d6000803e3d6000fd5b50505050600360009054906101000a900473ffffffffffffffffffffffffffffffffffffffff1673ffffffffffffffffffffffffffffffffffffffff1663a22cb46560008054906101000a900473ffffffffffffffffffffffffffffffffffffffff1660016040518363ffffffff1660e01b815260040162000364929190620004c9565b600060405180830381600087803b1580156200037f57600080fd5b505af115801562000394573d6000803e3d6000fd5b5050505050505050620005fd565b600081519050620003b38162000595565b92915050565b600081519050620003ca81620005af565b92915050565b600081519050620003e181620005c9565b92915050565b600081519050620003f881620005e3565b92915050565b600080600080608085870312156200041557600080fd5b60006200042587828801620003a2565b94505060206200043887828801620003d0565b93505060406200044b87828801620003e7565b92505060606200045e87828801620003e7565b91505092959194509250565b6000602082840312156200047d57600080fd5b60006200048d84828501620003b9565b91505092915050565b620004a18162000523565b82525050565b620004b28162000537565b82525050565b620004c3816200058b565b82525050565b6000604082019050620004e0600083018562000496565b620004ef6020830184620004a7565b9392505050565b60006040820190506200050d600083018562000496565b6200051c6020830184620004b8565b9392505050565b600062000530826200056b565b9050919050565b60008115159050919050565b6000620005508262000523565b9050919050565b6000620005648262000523565b9050919050565b600073ffffffffffffffffffffffffffffffffffffffff82169050919050565b6000819050919050565b620005a08162000523565b8114620005ac57600080fd5b50565b620005ba8162000537565b8114620005c657600080fd5b50565b620005d48162000543565b8114620005e057600080fd5b50565b620005ee8162000557565b8114620005fa57600080fd5b50565b611081806200060d6000396000f3fe608060405234801561001057600080fd5b50600436106100a95760003560e01c806362535fb21161007157806362535fb21461014257806399164a9714610160578063b4c42f371461016a578063b8b5b1f914610188578063e3147de9146101a6578063f851a440146101c4576100a9565b8063150b7a02146100ae5780632cbaccec146100de57806333a581d2146100e85780634369ad23146101065780634d45f1dd14610124575b600080fd5b6100c860048036038101906100c39190610ae2565b6101e2565b6040516100d59190610cca565b60405180910390f35b6100e66101f6565b005b6100f0610592565b6040516100fd9190610d5b565b60405180910390f35b61010e6105b6565b60405161011b9190610d5b565b60405180910390f35b61012c6105c2565b6040516101399190610d5b565b60405180910390f35b61014a6105db565b6040516101579190610d00565b60405180910390f35b610168610601565b005b61017261099d565b60405161017f9190610ce5565b60405180910390f35b6101906109c3565b60405161019d9190610d00565b60405180910390f35b6101ae6109e9565b6040516101bb9190610d5b565b60405180910390f35b6101cc610a02565b6040516101d99190610c4f565b60405180910390f35b600063150b7a0260e01b9050949350505050565b6000600360009054906101000a900473ffffffffffffffffffffffffffffffffffffffff1673ffffffffffffffffffffffffffffffffffffffff166370a08231306040518263ffffffff1660e01b81526004016102539190610c4f565b60206040518083038186803b15801561026b57600080fd5b505afa15801561027f573d6000803e3d6000fd5b505050506040513d601f19601f820116820180604052508101906102a39190610b86565b116102e3576040517f08c379a00000000000000000000000000000000000000000000000000000000081526004016102da90610d1b565b60405180910390fd5b6000600360009054906101000a900473ffffffffffffffffffffffffffffffffffffffff1673ffffffffffffffffffffffffffffffffffffffff16632f745c593060006040518363ffffffff1660e01b8152600401610343929190610ca1565b60206040518083038186803b15801561035b57600080fd5b505afa15801561036f573d6000803e3d6000fd5b505050506040513d601f19601f820116820180604052508101906103939190610b86565b9050803373ffffffffffffffffffffffffffffffffffffffff167f2717d0f4001c47db757229e11837776e09cd3f6e082d5ac84fe02627bac7ba1f60405160405180910390a3600160009054906101000a900473ffffffffffffffffffffffffffffffffffffffff1673ffffffffffffffffffffffffffffffffffffffff166323b872dd3360008054906101000a900473ffffffffffffffffffffffffffffffffffffffff16670de0b6b3a76400006107d061044f9190610ddd565b6040518463ffffffff1660e01b815260040161046d93929190610c6a565b602060405180830381600087803b15801561048757600080fd5b505af115801561049b573d6000803e3d6000fd5b505050506040513d601f19601f820116820180604052508101906104bf9190610b5d565b6104fe576040517f08c379a00000000000000000000000000000000000000000000000000000000081526004016104f590610d3b565b60405180910390fd5b600360009054906101000a900473ffffffffffffffffffffffffffffffffffffffff1673ffffffffffffffffffffffffffffffffffffffff166342842e0e3033846040518463ffffffff1660e01b815260040161055d93929190610c6a565b600060405180830381600087803b15801561057757600080fd5b505af115801561058b573d6000803e3d6000fd5b5050505050565b7fffffffffffffffffffffffffffffffffffffffffffffffffffffffffffffffff81565b670de0b6b3a764000081565b670de0b6b3a76400006107d06105d89190610ddd565b81565b600360009054906101000a900473ffffffffffffffffffffffffffffffffffffffff1681565b6000600260009054906101000a900473ffffffffffffffffffffffffffffffffffffffff1673ffffffffffffffffffffffffffffffffffffffff166370a08231306040518263ffffffff1660e01b815260040161065e9190610c4f565b60206040518083038186803b15801561067657600080fd5b505afa15801561068a573d6000803e3d6000fd5b505050506040513d601f19601f820116820180604052508101906106ae9190610b86565b116106ee576040517f08c379a00000000000000000000000000000000000000000000000000000000081526004016106e590610d1b565b60405180910390fd5b6000600260009054906101000a900473ffffffffffffffffffffffffffffffffffffffff1673ffffffffffffffffffffffffffffffffffffffff16632f745c593060006040518363ffffffff1660e01b815260040161074e929190610ca1565b60206040518083038186803b15801561076657600080fd5b505afa15801561077a573d6000803e3d6000fd5b505050506040513d601f19601f8201168201806040525081019061079e9190610b86565b9050803373ffffffffffffffffffffffffffffffffffffffff167fbf905f87cc751bf97c03d31f613bf9bc054154c9ff879890396a55ebdcce10c860405160405180910390a3600160009054906101000a900473ffffffffffffffffffffffffffffffffffffffff1673ffffffffffffffffffffffffffffffffffffffff166323b872dd3360008054906101000a900473ffffffffffffffffffffffffffffffffffffffff16670de0b6b3a764000061c35061085a9190610ddd565b6040518463ffffffff1660e01b815260040161087893929190610c6a565b602060405180830381600087803b15801561089257600080fd5b505af11580156108a6573d6000803e3d6000fd5b505050506040513d601f19601f820116820180604052508101906108ca9190610b5d565b610909576040517f08c379a000000000000000000000000000000000000000000000000000000000815260040161090090610d3b565b60405180910390fd5b600260009054906101000a900473ffffffffffffffffffffffffffffffffffffffff1673ffffffffffffffffffffffffffffffffffffffff166342842e0e3033846040518463ffffffff1660e01b815260040161096893929190610c6a565b600060405180830381600087803b15801561098257600080fd5b505af1158015610996573d6000803e3d6000fd5b5050505050565b600160009054906101000a900473ffffffffffffffffffffffffffffffffffffffff1681565b600260009054906101000a900473ffffffffffffffffffffffffffffffffffffffff1681565b670de0b6b3a764000061c3506109ff9190610ddd565b81565b60008054906101000a900473ffffffffffffffffffffffffffffffffffffffff1681565b6000610a39610a3484610d9b565b610d76565b905082815260208101848484011115610a5157600080fd5b610a5c848285610f05565b509392505050565b600081359050610a7381611006565b92915050565b600081519050610a888161101d565b92915050565b600082601f830112610a9f57600080fd5b8135610aaf848260208601610a26565b91505092915050565b600081359050610ac781611034565b92915050565b600081519050610adc81611034565b92915050565b60008060008060808587031215610af857600080fd5b6000610b0687828801610a64565b9450506020610b1787828801610a64565b9350506040610b2887828801610ab8565b925050606085013567ffffffffffffffff811115610b4557600080fd5b610b5187828801610a8e565b91505092959194509250565b600060208284031215610b6f57600080fd5b6000610b7d84828501610a79565b91505092915050565b600060208284031215610b9857600080fd5b6000610ba684828501610acd565b91505092915050565b610bb881610e37565b82525050565b610bc781610e55565b82525050565b610bd681610eab565b82525050565b610be581610ecf565b82525050565b610bf481610ef3565b82525050565b6000610c07600883610dcc565b9150610c1282610fb4565b602082019050919050565b6000610c2a600e83610dcc565b9150610c3582610fdd565b602082019050919050565b610c4981610ea1565b82525050565b6000602082019050610c646000830184610baf565b92915050565b6000606082019050610c7f6000830186610baf565b610c8c6020830185610baf565b610c996040830184610c40565b949350505050565b6000604082019050610cb66000830185610baf565b610cc36020830184610beb565b9392505050565b6000602082019050610cdf6000830184610bbe565b92915050565b6000602082019050610cfa6000830184610bcd565b92915050565b6000602082019050610d156000830184610bdc565b92915050565b60006020820190508181036000830152610d3481610bfa565b9050919050565b60006020820190508181036000830152610d5481610c1d565b9050919050565b6000602082019050610d706000830184610c40565b92915050565b6000610d80610d91565b9050610d8c8282610f14565b919050565b6000604051905090565b600067ffffffffffffffff821115610db657610db5610f74565b5b610dbf82610fa3565b9050602081019050919050565b600082825260208201905092915050565b6000610de882610ea1565b9150610df383610ea1565b9250817fffffffffffffffffffffffffffffffffffffffffffffffffffffffffffffffff0483118215151615610e2c57610e2b610f45565b5b828202905092915050565b6000610e4282610e81565b9050919050565b60008115159050919050565b60007fffffffff0000000000000000000000000000000000000000000000000000000082169050919050565b600073ffffffffffffffffffffffffffffffffffffffff82169050919050565b6000819050919050565b6000610eb682610ebd565b9050919050565b6000610ec882610e81565b9050919050565b6000610eda82610ee1565b9050919050565b6000610eec82610e81565b9050919050565b6000610efe82610ea1565b9050919050565b82818337600083830152505050565b610f1d82610fa3565b810181811067ffffffffffffffff82111715610f3c57610f3b610f74565b5b80604052505050565b7f4e487b7100000000000000000000000000000000000000000000000000000000600052601160045260246000fd5b7f4e487b7100000000000000000000000000000000000000000000000000000000600052604160045260246000fd5b6000601f19601f8301169050919050565b7f736f6c64206f7574000000000000000000000000000000000000000000000000600082015250565b7f7061796d656e74206661696c6564000000000000000000000000000000000000600082015250565b61100f81610e37565b811461101a57600080fd5b50565b61102681610e49565b811461103157600080fd5b50565b61103d81610ea1565b811461104857600080fd5b5056fea264697066735822122067e1122597aafa2e2e1cfca2cf592aa40c787dbecd5295f5a020f9b258e1801564736f6c63430008040033",
  "linkReferences": {},
  "deployedLinkReferences": {}
}