{
  "_format": "hh-sol-artifact-1",
  "contractName": "TicketNFT",
  "sourceName": "contracts/TicketNFT.sol",
  "abi": [
    {
      "inputs": [
        {
          "internalType": "string",
          "name": "name",
          "type": "string"
        },
        {
          "internalType": "string",
          "name": "symbol",
          "type": "string"
        },
        {
          "internalType": "string",
          "name": "baseTokenURI",
          "type": "string"
        }
      ],
      "stateMutability": "nonpayable",
      "type": "constructor"
    },
    {
      "anonymous": false,
      "inputs": [
        {
          "indexed": true,
          "internalType": "address",
          "name": "owner",
          "type": "address"
        },
        {
          "indexed": true,
          "internalType": "address",
          "name": "approved",
          "type": "address"
        },
        {
          "indexed": true,
          "internalType": "uint256",
          "name": "tokenId",
          "type": "uint256"
        }
      ],
      "name": "Approval",
      "type": "event"
    },
    {
      "anonymous": false,
      "inputs": [
        {
          "indexed": true,
          "internalType": "address",
          "name": "owner",
          "type": "address"
        },
        {
          "indexed": true,
          "internalType": "address",
          "name": "operator",
          "type": "address"
        },
        {
          "indexed": false,
          "internalType": "bool",
          "name": "approved",
          "type": "bool"
        }
      ],
      "name": "ApprovalForAll",
      "type": "event"
    },
    {
      "anonymous": false,
      "inputs": [
        {
          "indexed": true,
          "internalType": "address",
          "name": "previousOwner",
          "type": "address"
        },
        {
          "indexed": true,
          "internalType": "address",
          "name": "newOwner",
          "type": "address"
        }
      ],
      "name": "OwnershipTransferred",
      "type": "event"
    },
    {
      "anonymous": false,
      "inputs": [
        {
          "indexed": true,
          "internalType": "address",
          "name": "from",
          "type": "address"
        },
        {
          "indexed": true,
          "internalType": "address",
          "name": "to",
          "type": "address"
        },
        {
          "indexed": true,
          "internalType": "uint256",
          "name": "tokenId",
          "type": "uint256"
        }
      ],
      "name": "Transfer",
      "type": "event"
    },
    {
      "inputs": [
        {
          "internalType": "address",
          "name": "to",
          "type": "address"
        },
        {
          "internalType": "uint256",
          "name": "tokenId",
          "type": "uint256"
        }
      ],
      "name": "approve",
      "outputs": [],
      "stateMutability": "nonpayable",
      "type": "function"
    },
    {
      "inputs": [
        {
          "internalType": "address",
          "name": "owner",
          "type": "address"
        }
      ],
      "name": "balanceOf",
      "outputs": [
        {
          "internalType": "uint256",
          "name": "",
          "type": "uint256"
        }
      ],
      "stateMutability": "view",
      "type": "function"
    },
    {
      "inputs": [
        {
          "internalType": "uint256",
          "name": "tokenId",
          "type": "uint256"
        }
      ],
      "name": "getApproved",
      "outputs": [
        {
          "internalType": "address",
          "name": "",
          "type": "address"
        }
      ],
      "stateMutability": "view",
      "type": "function"
    },
    {
      "inputs": [
        {
          "internalType": "address",
          "name": "owner",
          "type": "address"
        },
        {
          "internalType": "address",
          "name": "operator",
          "type": "address"
        }
      ],
      "name": "isApprovedForAll",
      "outputs": [
        {
          "internalType": "bool",
          "name": "",
          "type": "bool"
        }
      ],
      "stateMutability": "view",
      "type": "function"
    },
    {
      "inputs": [],
      "name": "name",
      "outputs": [
        {
          "internalType": "string",
          "name": "",
          "type": "string"
        }
      ],
      "stateMutability": "view",
      "type": "function"
    },
    {
      "inputs": [],
      "name": "owner",
      "outputs": [
        {
          "internalType": "address",
          "name": "",
          "type": "address"
        }
      ],
      "stateMutability": "view",
      "type": "function"
    },
    {
      "inputs": [
        {
          "internalType": "uint256",
          "name": "tokenId",
          "type": "uint256"
        }
      ],
      "name": "ownerOf",
      "outputs": [
        {
          "internalType": "address",
          "name": "",
          "type": "address"
        }
      ],
      "stateMutability": "view",
      "type": "function"
    },
    {
      "inputs": [],
      "name": "renounceOwnership",
      "outputs": [],
      "stateMutability": "nonpayable",
      "type": "function"
    },
    {
      "inputs": [
        {
          "internalType": "address",
          "name": "to",
          "type": "address"
        }
      ],
      "name": "safeMint",
      "outputs": [],
      "stateMutability": "nonpayable",
      "type": "function"
    },
    {
      "inputs": [
        {
          "internalType": "address",
          "name": "from",
          "type": "address"
        },
        {
          "internalType": "address",
          "name": "to",
          "type": "address"
        },
        {
          "internalType": "uint256",
          "name": "tokenId",
          "type": "uint256"
        }
      ],
      "name": "safeTransferFrom",
      "outputs": [],
      "stateMutability": "nonpayable",
      "type": "function"
    },
    {
      "inputs": [
        {
          "internalType": "address",
          "name": "from",
          "type": "address"
        },
        {
          "internalType": "address",
          "name": "to",
          "type": "address"
        },
        {
          "internalType": "uint256",
          "name": "tokenId",
          "type": "uint256"
        },
        {
          "internalType": "bytes",
          "name": "_data",
          "type": "bytes"
        }
      ],
      "name": "safeTransferFrom",
      "outputs": [],
      "stateMutability": "nonpayable",
      "type": "function"
    },
    {
      "inputs": [
        {
          "internalType": "address",
          "name": "operator",
          "type": "address"
        },
        {
          "internalType": "bool",
          "name": "approved",
          "type": "bool"
        }
      ],
      "name": "setApprovalForAll",
      "outputs": [],
      "stateMutability": "nonpayable",
      "type": "function"
    },
    {
      "inputs": [
        {
          "internalType": "bytes4",
          "name": "interfaceId",
          "type": "bytes4"
        }
      ],
      "name": "supportsInterface",
      "outputs": [
        {
          "internalType": "bool",
          "name": "",
          "type": "bool"
        }
      ],
      "stateMutability": "view",
      "type": "function"
    },
    {
      "inputs": [],
      "name": "symbol",
      "outputs": [
        {
          "internalType": "string",
          "name": "",
          "type": "string"
        }
      ],
      "stateMutability": "view",
      "type": "function"
    },
    {
      "inputs": [
        {
          "internalType": "uint256",
          "name": "index",
          "type": "uint256"
        }
      ],
      "name": "tokenByIndex",
      "outputs": [
        {
          "internalType": "uint256",
          "name": "",
          "type": "uint256"
        }
      ],
      "stateMutability": "view",
      "type": "function"
    },
    {
      "inputs": [
        {
          "internalType": "address",
          "name": "owner",
          "type": "address"
        },
        {
          "internalType": "uint256",
          "name": "index",
          "type": "uint256"
        }
      ],
      "name": "tokenOfOwnerByIndex",
      "outputs": [
        {
          "internalType": "uint256",
          "name": "",
          "type": "uint256"
        }
      ],
      "stateMutability": "view",
      "type": "function"
    },
    {
      "inputs": [
        {
          "internalType": "uint256",
          "name": "tokenId",
          "type": "uint256"
        }
      ],
      "name": "tokenURI",
      "outputs": [
        {
          "internalType": "string",
          "name": "",
          "type": "string"
        }
      ],
      "stateMutability": "view",
      "type": "function"
    },
    {
      "inputs": [],
      "name": "totalSupply",
      "outputs": [
        {
          "internalType": "uint256",
          "name": "",
          "type": "uint256"
        }
      ],
      "stateMutability": "view",
      "type": "function"
    },
    {
      "inputs": [
        {
          "internalType": "address",
          "name": "from",
          "type": "address"
        },
        {
          "internalType": "address",
          "name": "to",
          "type": "address"
        },
        {
          "internalType": "uint256",
          "name": "tokenId",
          "type": "uint256"
        }
      ],
      "name": "transferFrom",
      "outputs": [],
      "stateMutability": "nonpayable",
      "type": "function"
    },
    {
      "inputs": [
        {
          "internalType": "address",
          "name": "newOwner",
          "type": "address"
        }
      ],
      "name": "transferOwnership",
      "outputs": [],
      "stateMutability": "nonpayable",
      "type": "function"
    }
  ],
  "bytecode": "0x60806040523480156200001157600080fd5b50604051620039313803806200393183398181016040528101906200003791906200029f565b82828160009080519060200190620000519291906200017d565b5080600190805190602001906200006a9291906200017d565b5050506200008d62000081620000af60201b60201c565b620000b760201b60201c565b80600c9080519060200190620000a59291906200017d565b50505050620004b0565b600033905090565b6000600a60009054906101000a900473ffffffffffffffffffffffffffffffffffffffff16905081600a60006101000a81548173ffffffffffffffffffffffffffffffffffffffff021916908373ffffffffffffffffffffffffffffffffffffffff1602179055508173ffffffffffffffffffffffffffffffffffffffff168173ffffffffffffffffffffffffffffffffffffffff167f8be0079c531659141344cd1fd0a4f28419497f9722a3daafe3b4186f6b6457e060405160405180910390a35050565b8280546200018b90620003d5565b90600052602060002090601f016020900481019282620001af5760008555620001fb565b82601f10620001ca57805160ff1916838001178555620001fb565b82800160010185558215620001fb579182015b82811115620001fa578251825591602001919060010190620001dd565b5b5090506200020a91906200020e565b5090565b5b80821115620002295760008160009055506001016200020f565b5090565b6000620002446200023e8462000369565b62000340565b9050828152602081018484840111156200025d57600080fd5b6200026a8482856200039f565b509392505050565b600082601f8301126200028457600080fd5b8151620002968482602086016200022d565b91505092915050565b600080600060608486031215620002b557600080fd5b600084015167ffffffffffffffff811115620002d057600080fd5b620002de8682870162000272565b935050602084015167ffffffffffffffff811115620002fc57600080fd5b6200030a8682870162000272565b925050604084015167ffffffffffffffff8111156200032857600080fd5b620003368682870162000272565b9150509250925092565b60006200034c6200035f565b90506200035a82826200040b565b919050565b6000604051905090565b600067ffffffffffffffff82111562000387576200038662000470565b5b62000392826200049f565b9050602081019050919050565b60005b83811015620003bf578082015181840152602081019050620003a2565b83811115620003cf576000848401525b50505050565b60006002820490506001821680620003ee57607f821691505b6020821081141562000405576200040462000441565b5b50919050565b62000416826200049f565b810181811067ffffffffffffffff8211171562000438576200043762000470565b5b80604052505050565b7f4e487b7100000000000000000000000000000000000000000000000000000000600052602260045260246000fd5b7f4e487b7100000000000000000000000000000000000000000000000000000000600052604160045260246000fd5b6000601f19601f8301169050919050565b61347180620004c06000396000f3fe608060405234801561001057600080fd5b506004361061012c5760003560e01c80636352211e116100ad578063a22cb46511610071578063a22cb46514610343578063b88d4fde1461035f578063c87b56dd1461037b578063e985e9c5146103ab578063f2fde38b146103db5761012c565b80636352211e1461029d57806370a08231146102cd578063715018a6146102fd5780638da5cb5b1461030757806395d89b41146103255761012c565b806323b872dd116100f457806323b872dd146101e95780632f745c591461020557806340d097c31461023557806342842e0e146102515780634f6ccce71461026d5761012c565b806301ffc9a71461013157806306fdde0314610161578063081812fc1461017f578063095ea7b3146101af57806318160ddd146101cb575b600080fd5b61014b60048036038101906101469190612451565b6103f7565b604051610158919061289d565b60405180910390f35b610169610409565b60405161017691906128b8565b60405180910390f35b610199600480360381019061019491906124a3565b61049b565b6040516101a69190612836565b60405180910390f35b6101c960048036038101906101c49190612415565b610520565b005b6101d3610638565b6040516101e09190612b1a565b60405180910390f35b61020360048036038101906101fe919061230f565b610645565b005b61021f600480360381019061021a9190612415565b6106a5565b60405161022c9190612b1a565b60405180910390f35b61024f600480360381019061024a91906122aa565b61074a565b005b61026b6004803603810190610266919061230f565b6107ec565b005b610287600480360381019061028291906124a3565b61080c565b6040516102949190612b1a565b60405180910390f35b6102b760048036038101906102b291906124a3565b6108a3565b6040516102c49190612836565b60405180910390f35b6102e760048036038101906102e291906122aa565b610955565b6040516102f49190612b1a565b60405180910390f35b610305610a0d565b005b61030f610a95565b60405161031c9190612836565b60405180910390f35b61032d610abf565b60405161033a91906128b8565b60405180910390f35b61035d600480360381019061035891906123d9565b610b51565b005b6103796004803603810190610374919061235e565b610b67565b005b610395600480360381019061039091906124a3565b610bc9565b6040516103a291906128b8565b60405180910390f35b6103c560048036038101906103c091906122d3565b610c70565b6040516103d2919061289d565b60405180910390f35b6103f560048036038101906103f091906122aa565b610d04565b005b600061040282610dfc565b9050919050565b60606000805461041890612d3f565b80601f016020809104026020016040519081016040528092919081815260200182805461044490612d3f565b80156104915780601f1061046657610100808354040283529160200191610491565b820191906000526020600020905b81548152906001019060200180831161047457829003601f168201915b5050505050905090565b60006104a682610e76565b6104e5576040517f08c379a00000000000000000000000000000000000000000000000000000000081526004016104dc90612a5a565b60405180910390fd5b6004600083815260200190815260200160002060009054906101000a900473ffffffffffffffffffffffffffffffffffffffff169050919050565b600061052b826108a3565b90508073ffffffffffffffffffffffffffffffffffffffff168373ffffffffffffffffffffffffffffffffffffffff16141561059c576040517f08c379a000000000000000000000000000000000000000000000000000000000815260040161059390612aba565b60405180910390fd5b8073ffffffffffffffffffffffffffffffffffffffff166105bb610ee2565b73ffffffffffffffffffffffffffffffffffffffff1614806105ea57506105e9816105e4610ee2565b610c70565b5b610629576040517f08c379a0000000000000000000000000000000000000000000000000000000008152600401610620906129da565b60405180910390fd5b6106338383610eea565b505050565b6000600880549050905090565b610656610650610ee2565b82610fa3565b610695576040517f08c379a000000000000000000000000000000000000000000000000000000000815260040161068c90612ada565b60405180910390fd5b6106a0838383611081565b505050565b60006106b083610955565b82106106f1576040517f08c379a00000000000000000000000000000000000000000000000000000000081526004016106e8906128da565b60405180910390fd5b600660008473ffffffffffffffffffffffffffffffffffffffff1673ffffffffffffffffffffffffffffffffffffffff168152602001908152602001600020600083815260200190815260200160002054905092915050565b610752610ee2565b73ffffffffffffffffffffffffffffffffffffffff16610770610a95565b73ffffffffffffffffffffffffffffffffffffffff16146107c6576040517f08c379a00000000000000000000000000000000000000000000000000000000081526004016107bd90612a7a565b60405180910390fd5b60006107d2600b6112e8565b90506107de600b6112f6565b6107e8828261130c565b5050565b61080783838360405180602001604052806000815250610b67565b505050565b6000610816610638565b8210610857576040517f08c379a000000000000000000000000000000000000000000000000000000000815260040161084e90612afa565b60405180910390fd5b60088281548110610891577f4e487b7100000000000000000000000000000000000000000000000000000000600052603260045260246000fd5b90600052602060002001549050919050565b6000806002600084815260200190815260200160002060009054906101000a900473ffffffffffffffffffffffffffffffffffffffff169050600073ffffffffffffffffffffffffffffffffffffffff168173ffffffffffffffffffffffffffffffffffffffff16141561094c576040517f08c379a000000000000000000000000000000000000000000000000000000000815260040161094390612a1a565b60405180910390fd5b80915050919050565b60008073ffffffffffffffffffffffffffffffffffffffff168273ffffffffffffffffffffffffffffffffffffffff1614156109c6576040517f08c379a00000000000000000000000000000000000000000000000000000000081526004016109bd906129fa565b60405180910390fd5b600360008373ffffffffffffffffffffffffffffffffffffffff1673ffffffffffffffffffffffffffffffffffffffff168152602001908152602001600020549050919050565b610a15610ee2565b73ffffffffffffffffffffffffffffffffffffffff16610a33610a95565b73ffffffffffffffffffffffffffffffffffffffff1614610a89576040517f08c379a0000000000000000000000000000000000000000000000000000000008152600401610a8090612a7a565b60405180910390fd5b610a93600061132a565b565b6000600a60009054906101000a900473ffffffffffffffffffffffffffffffffffffffff16905090565b606060018054610ace90612d3f565b80601f0160208091040260200160405190810160405280929190818152602001828054610afa90612d3f565b8015610b475780601f10610b1c57610100808354040283529160200191610b47565b820191906000526020600020905b815481529060010190602001808311610b2a57829003601f168201915b5050505050905090565b610b63610b5c610ee2565b83836113f0565b5050565b610b78610b72610ee2565b83610fa3565b610bb7576040517f08c379a0000000000000000000000000000000000000000000000000000000008152600401610bae90612ada565b60405180910390fd5b610bc38484848461155d565b50505050565b6060610bd482610e76565b610c13576040517f08c379a0000000000000000000000000000000000000000000000000000000008152600401610c0a90612a9a565b60405180910390fd5b6000610c1d6115b9565b90506000815111610c3d5760405180602001604052806000815250610c68565b80610c478461164b565b604051602001610c58929190612812565b6040516020818303038152906040525b915050919050565b6000600560008473ffffffffffffffffffffffffffffffffffffffff1673ffffffffffffffffffffffffffffffffffffffff16815260200190815260200160002060008373ffffffffffffffffffffffffffffffffffffffff1673ffffffffffffffffffffffffffffffffffffffff16815260200190815260200160002060009054906101000a900460ff16905092915050565b610d0c610ee2565b73ffffffffffffffffffffffffffffffffffffffff16610d2a610a95565b73ffffffffffffffffffffffffffffffffffffffff1614610d80576040517f08c379a0000000000000000000000000000000000000000000000000000000008152600401610d7790612a7a565b60405180910390fd5b600073ffffffffffffffffffffffffffffffffffffffff168173ffffffffffffffffffffffffffffffffffffffff161415610df0576040517f08c379a0000000000000000000000000000000000000000000000000000000008152600401610de79061291a565b60405180910390fd5b610df98161132a565b50565b60007f780e9d63000000000000000000000000000000000000000000000000000000007bffffffffffffffffffffffffffffffffffffffffffffffffffffffff1916827bffffffffffffffffffffffffffffffffffffffffffffffffffffffff19161480610e6f5750610e6e826117f8565b5b9050919050565b60008073ffffffffffffffffffffffffffffffffffffffff166002600084815260200190815260200160002060009054906101000a900473ffffffffffffffffffffffffffffffffffffffff1673ffffffffffffffffffffffffffffffffffffffff1614159050919050565b600033905090565b816004600083815260200190815260200160002060006101000a81548173ffffffffffffffffffffffffffffffffffffffff021916908373ffffffffffffffffffffffffffffffffffffffff160217905550808273ffffffffffffffffffffffffffffffffffffffff16610f5d836108a3565b73ffffffffffffffffffffffffffffffffffffffff167f8c5be1e5ebec7d5bd14f71427d1e84f3dd0314c0f7b2291e5b200ac8c7c3b92560405160405180910390a45050565b6000610fae82610e76565b610fed576040517f08c379a0000000000000000000000000000000000000000000000000000000008152600401610fe4906129ba565b60405180910390fd5b6000610ff8836108a3565b90508073ffffffffffffffffffffffffffffffffffffffff168473ffffffffffffffffffffffffffffffffffffffff16148061106757508373ffffffffffffffffffffffffffffffffffffffff1661104f8461049b565b73ffffffffffffffffffffffffffffffffffffffff16145b8061107857506110778185610c70565b5b91505092915050565b8273ffffffffffffffffffffffffffffffffffffffff166110a1826108a3565b73ffffffffffffffffffffffffffffffffffffffff16146110f7576040517f08c379a00000000000000000000000000000000000000000000000000000000081526004016110ee9061293a565b60405180910390fd5b600073ffffffffffffffffffffffffffffffffffffffff168273ffffffffffffffffffffffffffffffffffffffff161415611167576040517f08c379a000000000000000000000000000000000000000000000000000000000815260040161115e9061297a565b60405180910390fd5b6111728383836118da565b61117d600082610eea565b6001600360008573ffffffffffffffffffffffffffffffffffffffff1673ffffffffffffffffffffffffffffffffffffffff16815260200190815260200160002060008282546111cd9190612c55565b925050819055506001600360008473ffffffffffffffffffffffffffffffffffffffff1673ffffffffffffffffffffffffffffffffffffffff16815260200190815260200160002060008282546112249190612bce565b92505081905550816002600083815260200190815260200160002060006101000a81548173ffffffffffffffffffffffffffffffffffffffff021916908373ffffffffffffffffffffffffffffffffffffffff160217905550808273ffffffffffffffffffffffffffffffffffffffff168473ffffffffffffffffffffffffffffffffffffffff167fddf252ad1be2c89b69c2b068fc378daa952ba7f163c4a11628f55a4df523b3ef60405160405180910390a46112e38383836118ea565b505050565b600081600001549050919050565b6001816000016000828254019250508190555050565b6113268282604051806020016040528060008152506118ef565b5050565b6000600a60009054906101000a900473ffffffffffffffffffffffffffffffffffffffff16905081600a60006101000a81548173ffffffffffffffffffffffffffffffffffffffff021916908373ffffffffffffffffffffffffffffffffffffffff1602179055508173ffffffffffffffffffffffffffffffffffffffff168173ffffffffffffffffffffffffffffffffffffffff167f8be0079c531659141344cd1fd0a4f28419497f9722a3daafe3b4186f6b6457e060405160405180910390a35050565b8173ffffffffffffffffffffffffffffffffffffffff168373ffffffffffffffffffffffffffffffffffffffff16141561145f576040517f08c379a00000000000000000000000000000000000000000000000000000000081526004016114569061299a565b60405180910390fd5b80600560008573ffffffffffffffffffffffffffffffffffffffff1673ffffffffffffffffffffffffffffffffffffffff16815260200190815260200160002060008473ffffffffffffffffffffffffffffffffffffffff1673ffffffffffffffffffffffffffffffffffffffff16815260200190815260200160002060006101000a81548160ff0219169083151502179055508173ffffffffffffffffffffffffffffffffffffffff168373ffffffffffffffffffffffffffffffffffffffff167f17307eab39ab6107e8899845ad3d59bd9653f200f220920489ca2b5937696c3183604051611550919061289d565b60405180910390a3505050565b611568848484611081565b6115748484848461194a565b6115b3576040517f08c379a00000000000000000000000000000000000000000000000000000000081526004016115aa906128fa565b60405180910390fd5b50505050565b6060600c80546115c890612d3f565b80601f01602080910402602001604051908101604052809291908181526020018280546115f490612d3f565b80156116415780601f1061161657610100808354040283529160200191611641565b820191906000526020600020905b81548152906001019060200180831161162457829003601f168201915b5050505050905090565b60606000821415611693576040518060400160405280600181526020017f300000000000000000000000000000000000000000000000000000000000000081525090506117f3565b600082905060005b600082146116c55780806116ae90612da2565b915050600a826116be9190612c24565b915061169b565b60008167ffffffffffffffff811115611707577f4e487b7100000000000000000000000000000000000000000000000000000000600052604160045260246000fd5b6040519080825280601f01601f1916602001820160405280156117395781602001600182028036833780820191505090505b5090505b600085146117ec576001826117529190612c55565b9150600a856117619190612deb565b603061176d9190612bce565b60f81b8183815181106117a9577f4e487b7100000000000000000000000000000000000000000000000000000000600052603260045260246000fd5b60200101907effffffffffffffffffffffffffffffffffffffffffffffffffffffffffffff1916908160001a905350600a856117e59190612c24565b945061173d565b8093505050505b919050565b60007f80ac58cd000000000000000000000000000000000000000000000000000000007bffffffffffffffffffffffffffffffffffffffffffffffffffffffff1916827bffffffffffffffffffffffffffffffffffffffffffffffffffffffff191614806118c357507f5b5e139f000000000000000000000000000000000000000000000000000000007bffffffffffffffffffffffffffffffffffffffffffffffffffffffff1916827bffffffffffffffffffffffffffffffffffffffffffffffffffffffff1916145b806118d357506118d282611ae1565b5b9050919050565b6118e5838383611b4b565b505050565b505050565b6118f98383611c5f565b611906600084848461194a565b611945576040517f08c379a000000000000000000000000000000000000000000000000000000000815260040161193c906128fa565b60405180910390fd5b505050565b600061196b8473ffffffffffffffffffffffffffffffffffffffff16611e39565b15611ad4578373ffffffffffffffffffffffffffffffffffffffff1663150b7a02611994610ee2565b8786866040518563ffffffff1660e01b81526004016119b69493929190612851565b602060405180830381600087803b1580156119d057600080fd5b505af1925050508015611a0157506040513d601f19601f820116820180604052508101906119fe919061247a565b60015b611a84573d8060008114611a31576040519150601f19603f3d011682016040523d82523d6000602084013e611a36565b606091505b50600081511415611a7c576040517f08c379a0000000000000000000000000000000000000000000000000000000008152600401611a73906128fa565b60405180910390fd5b805181602001fd5b63150b7a0260e01b7bffffffffffffffffffffffffffffffffffffffffffffffffffffffff1916817bffffffffffffffffffffffffffffffffffffffffffffffffffffffff191614915050611ad9565b600190505b949350505050565b60007f01ffc9a7000000000000000000000000000000000000000000000000000000007bffffffffffffffffffffffffffffffffffffffffffffffffffffffff1916827bffffffffffffffffffffffffffffffffffffffffffffffffffffffff1916149050919050565b611b56838383611e5c565b600073ffffffffffffffffffffffffffffffffffffffff168373ffffffffffffffffffffffffffffffffffffffff161415611b9957611b9481611e61565b611bd8565b8173ffffffffffffffffffffffffffffffffffffffff168373ffffffffffffffffffffffffffffffffffffffff1614611bd757611bd68382611eaa565b5b5b600073ffffffffffffffffffffffffffffffffffffffff168273ffffffffffffffffffffffffffffffffffffffff161415611c1b57611c1681612017565b611c5a565b8273ffffffffffffffffffffffffffffffffffffffff168273ffffffffffffffffffffffffffffffffffffffff1614611c5957611c58828261215a565b5b5b505050565b600073ffffffffffffffffffffffffffffffffffffffff168273ffffffffffffffffffffffffffffffffffffffff161415611ccf576040517f08c379a0000000000000000000000000000000000000000000000000000000008152600401611cc690612a3a565b60405180910390fd5b611cd881610e76565b15611d18576040517f08c379a0000000000000000000000000000000000000000000000000000000008152600401611d0f9061295a565b60405180910390fd5b611d24600083836118da565b6001600360008473ffffffffffffffffffffffffffffffffffffffff1673ffffffffffffffffffffffffffffffffffffffff1681526020019081526020016000206000828254611d749190612bce565b92505081905550816002600083815260200190815260200160002060006101000a81548173ffffffffffffffffffffffffffffffffffffffff021916908373ffffffffffffffffffffffffffffffffffffffff160217905550808273ffffffffffffffffffffffffffffffffffffffff16600073ffffffffffffffffffffffffffffffffffffffff167fddf252ad1be2c89b69c2b068fc378daa952ba7f163c4a11628f55a4df523b3ef60405160405180910390a4611e35600083836118ea565b5050565b6000808273ffffffffffffffffffffffffffffffffffffffff163b119050919050565b505050565b6008805490506009600083815260200190815260200160002081905550600881908060018154018082558091505060019003906000526020600020016000909190919091505550565b60006001611eb784610955565b611ec19190612c55565b9050600060076000848152602001908152602001600020549050818114611fa6576000600660008673ffffffffffffffffffffffffffffffffffffffff1673ffffffffffffffffffffffffffffffffffffffff168152602001908152602001600020600084815260200190815260200160002054905080600660008773ffffffffffffffffffffffffffffffffffffffff1673ffffffffffffffffffffffffffffffffffffffff168152602001908152602001600020600084815260200190815260200160002081905550816007600083815260200190815260200160002081905550505b6007600084815260200190815260200160002060009055600660008573ffffffffffffffffffffffffffffffffffffffff1673ffffffffffffffffffffffffffffffffffffffff16815260200190815260200160002060008381526020019081526020016000206000905550505050565b6000600160088054905061202b9190612c55565b9050600060096000848152602001908152602001600020549050600060088381548110612081577f4e487b7100000000000000000000000000000000000000000000000000000000600052603260045260246000fd5b9060005260206000200154905080600883815481106120c9577f4e487b7100000000000000000000000000000000000000000000000000000000600052603260045260246000fd5b90600052602060002001819055508160096000838152602001908152602001600020819055506009600085815260200190815260200160002060009055600880548061213e577f4e487b7100000000000000000000000000000000000000000000000000000000600052603160045260246000fd5b6001900381819060005260206000200160009055905550505050565b600061216583610955565b905081600660008573ffffffffffffffffffffffffffffffffffffffff1673ffffffffffffffffffffffffffffffffffffffff168152602001908152602001600020600083815260200190815260200160002081905550806007600084815260200190815260200160002081905550505050565b60006121ec6121e784612b5a565b612b35565b90508281526020810184848401111561220457600080fd5b61220f848285612cfd565b509392505050565b600081359050612226816133df565b92915050565b60008135905061223b816133f6565b92915050565b6000813590506122508161340d565b92915050565b6000815190506122658161340d565b92915050565b600082601f83011261227c57600080fd5b813561228c8482602086016121d9565b91505092915050565b6000813590506122a481613424565b92915050565b6000602082840312156122bc57600080fd5b60006122ca84828501612217565b91505092915050565b600080604083850312156122e657600080fd5b60006122f485828601612217565b925050602061230585828601612217565b9150509250929050565b60008060006060848603121561232457600080fd5b600061233286828701612217565b935050602061234386828701612217565b925050604061235486828701612295565b9150509250925092565b6000806000806080858703121561237457600080fd5b600061238287828801612217565b945050602061239387828801612217565b93505060406123a487828801612295565b925050606085013567ffffffffffffffff8111156123c157600080fd5b6123cd8782880161226b565b91505092959194509250565b600080604083850312156123ec57600080fd5b60006123fa85828601612217565b925050602061240b8582860161222c565b9150509250929050565b6000806040838503121561242857600080fd5b600061243685828601612217565b925050602061244785828601612295565b9150509250929050565b60006020828403121561246357600080fd5b600061247184828501612241565b91505092915050565b60006020828403121561248c57600080fd5b600061249a84828501612256565b91505092915050565b6000602082840312156124b557600080fd5b60006124c384828501612295565b91505092915050565b6124d581612c89565b82525050565b6124e481612c9b565b82525050565b60006124f582612b8b565b6124ff8185612ba1565b935061250f818560208601612d0c565b61251881612ed8565b840191505092915050565b600061252e82612b96565b6125388185612bb2565b9350612548818560208601612d0c565b61255181612ed8565b840191505092915050565b600061256782612b96565b6125718185612bc3565b9350612581818560208601612d0c565b80840191505092915050565b600061259a602b83612bb2565b91506125a582612ee9565b604082019050919050565b60006125bd603283612bb2565b91506125c882612f38565b604082019050919050565b60006125e0602683612bb2565b91506125eb82612f87565b604082019050919050565b6000612603602583612bb2565b915061260e82612fd6565b604082019050919050565b6000612626601c83612bb2565b915061263182613025565b602082019050919050565b6000612649602483612bb2565b91506126548261304e565b604082019050919050565b600061266c601983612bb2565b91506126778261309d565b602082019050919050565b600061268f602c83612bb2565b915061269a826130c6565b604082019050919050565b60006126b2603883612bb2565b91506126bd82613115565b604082019050919050565b60006126d5602a83612bb2565b91506126e082613164565b604082019050919050565b60006126f8602983612bb2565b9150612703826131b3565b604082019050919050565b600061271b602083612bb2565b915061272682613202565b602082019050919050565b600061273e602c83612bb2565b91506127498261322b565b604082019050919050565b6000612761602083612bb2565b915061276c8261327a565b602082019050919050565b6000612784602f83612bb2565b915061278f826132a3565b604082019050919050565b60006127a7602183612bb2565b91506127b2826132f2565b604082019050919050565b60006127ca603183612bb2565b91506127d582613341565b604082019050919050565b60006127ed602c83612bb2565b91506127f882613390565b604082019050919050565b61280c81612cf3565b82525050565b600061281e828561255c565b915061282a828461255c565b91508190509392505050565b600060208201905061284b60008301846124cc565b92915050565b600060808201905061286660008301876124cc565b61287360208301866124cc565b6128806040830185612803565b818103606083015261289281846124ea565b905095945050505050565b60006020820190506128b260008301846124db565b92915050565b600060208201905081810360008301526128d28184612523565b905092915050565b600060208201905081810360008301526128f38161258d565b9050919050565b60006020820190508181036000830152612913816125b0565b9050919050565b60006020820190508181036000830152612933816125d3565b9050919050565b60006020820190508181036000830152612953816125f6565b9050919050565b6000602082019050818103600083015261297381612619565b9050919050565b600060208201905081810360008301526129938161263c565b9050919050565b600060208201905081810360008301526129b38161265f565b9050919050565b600060208201905081810360008301526129d381612682565b9050919050565b600060208201905081810360008301526129f3816126a5565b9050919050565b60006020820190508181036000830152612a13816126c8565b9050919050565b60006020820190508181036000830152612a33816126eb565b9050919050565b60006020820190508181036000830152612a538161270e565b9050919050565b60006020820190508181036000830152612a7381612731565b9050919050565b60006020820190508181036000830152612a9381612754565b9050919050565b60006020820190508181036000830152612ab381612777565b9050919050565b60006020820190508181036000830152612ad38161279a565b9050919050565b60006020820190508181036000830152612af3816127bd565b9050919050565b60006020820190508181036000830152612b13816127e0565b9050919050565b6000602082019050612b2f6000830184612803565b92915050565b6000612b3f612b50565b9050612b4b8282612d71565b919050565b6000604051905090565b600067ffffffffffffffff821115612b7557612b74612ea9565b5b612b7e82612ed8565b9050602081019050919050565b600081519050919050565b600081519050919050565b600082825260208201905092915050565b600082825260208201905092915050565b600081905092915050565b6000612bd982612cf3565b9150612be483612cf3565b9250827fffffffffffffffffffffffffffffffffffffffffffffffffffffffffffffffff03821115612c1957612c18612e1c565b5b828201905092915050565b6000612c2f82612cf3565b9150612c3a83612cf3565b925082612c4a57612c49612e4b565b5b828204905092915050565b6000612c6082612cf3565b9150612c6b83612cf3565b925082821015612c7e57612c7d612e1c565b5b828203905092915050565b6000612c9482612cd3565b9050919050565b60008115159050919050565b60007fffffffff0000000000000000000000000000000000000000000000000000000082169050919050565b600073ffffffffffffffffffffffffffffffffffffffff82169050919050565b6000819050919050565b82818337600083830152505050565b60005b83811015612d2a578082015181840152602081019050612d0f565b83811115612d39576000848401525b50505050565b60006002820490506001821680612d5757607f821691505b60208210811415612d6b57612d6a612e7a565b5b50919050565b612d7a82612ed8565b810181811067ffffffffffffffff82111715612d9957612d98612ea9565b5b80604052505050565b6000612dad82612cf3565b91507fffffffffffffffffffffffffffffffffffffffffffffffffffffffffffffffff821415612de057612ddf612e1c565b5b600182019050919050565b6000612df682612cf3565b9150612e0183612cf3565b925082612e1157612e10612e4b565b5b828206905092915050565b7f4e487b7100000000000000000000000000000000000000000000000000000000600052601160045260246000fd5b7f4e487b7100000000000000000000000000000000000000000000000000000000600052601260045260246000fd5b7f4e487b7100000000000000000000000000000000000000000000000000000000600052602260045260246000fd5b7f4e487b7100000000000000000000000000000000000000000000000000000000600052604160045260246000fd5b6000601f19601f8301169050919050565b7f455243373231456e756d657261626c653a206f776e657220696e646578206f7560008201527f74206f6620626f756e6473000000000000000000000000000000000000000000602082015250565b7f4552433732313a207472616e7366657220746f206e6f6e20455243373231526560008201527f63656976657220696d706c656d656e7465720000000000000000000000000000602082015250565b7f4f776e61626c653a206e6577206f776e657220697320746865207a65726f206160008201527f6464726573730000000000000000000000000000000000000000000000000000602082015250565b7f4552433732313a207472616e736665722066726f6d20696e636f72726563742060008201527f6f776e6572000000000000000000000000000000000000000000000000000000602082015250565b7f4552433732313a20746f6b656e20616c7265616479206d696e74656400000000600082015250565b7f4552433732313a207472616e7366657220746f20746865207a65726f2061646460008201527f7265737300000000000000000000000000000000000000000000000000000000602082015250565b7f4552433732313a20617070726f766520746f2063616c6c657200000000000000600082015250565b7f4552433732313a206f70657261746f7220717565727920666f72206e6f6e657860008201527f697374656e7420746f6b656e0000000000000000000000000000000000000000602082015250565b7f4552433732313a20617070726f76652063616c6c6572206973206e6f74206f7760008201527f6e6572206e6f7220617070726f76656420666f7220616c6c0000000000000000602082015250565b7f4552433732313a2062616c616e636520717565727920666f7220746865207a6560008201527f726f206164647265737300000000000000000000000000000000000000000000602082015250565b7f4552433732313a206f776e657220717565727920666f72206e6f6e657869737460008201527f656e7420746f6b656e0000000000000000000000000000000000000000000000602082015250565b7f4552433732313a206d696e7420746f20746865207a65726f2061646472657373600082015250565b7f4552433732313a20617070726f76656420717565727920666f72206e6f6e657860008201527f697374656e7420746f6b656e0000000000000000000000000000000000000000602082015250565b7f4f776e61626c653a2063616c6c6572206973206e6f7420746865206f776e6572600082015250565b7f4552433732314d657461646174613a2055524920717565727920666f72206e6f60008201527f6e6578697374656e7420746f6b656e0000000000000000000000000000000000602082015250565b7f4552433732313a20617070726f76616c20746f2063757272656e74206f776e6560008201527f7200000000000000000000000000000000000000000000000000000000000000602082015250565b7f4552433732313a207472616e736665722063616c6c6572206973206e6f74206f60008201527f776e6572206e6f7220617070726f766564000000000000000000000000000000602082015250565b7f455243373231456e756d657261626c653a20676c6f62616c20696e646578206f60008201527f7574206f6620626f756e64730000000000000000000000000000000000000000602082015250565b6133e881612c89565b81146133f357600080fd5b50565b6133ff81612c9b565b811461340a57600080fd5b50565b61341681612ca7565b811461342157600080fd5b50565b61342d81612cf3565b811461343857600080fd5b5056fea2646970667358221220fdac62c31d0208767fff1ef343e89a1448de89bc2eeb65af667a65575972870964736f6c63430008040033",
  "linkReferences": {},
  "deployedLinkReferences": {}
}