{
  "_format": "hh-sol-artifact-1",
  "contractName": "TicketNFT",
  "sourceName": "contracts/TicketNFT.sol",
  "abi": [
    {
      "inputs": [
        {
          "internalType": "string",
          "name": "name",
          "type": "string"
        },
        {
          "internalType": "string",
          "name": "symbol",
          "type": "string"
        },
        {
          "internalType": "string",
          "name": "baseTokenURI",
          "type": "string"
        }
      ],
      "stateMutability": "nonpayable",
      "type": "constructor"
    },
    {
      "anonymous": false,
      "inputs": [
        {
          "indexed": true,
          "internalType": "address",
          "name": "owner",
          "type": "address"
        },
        {
          "indexed": true,
          "internalType": "address",
          "name": "approved",
          "type": "address"
        },
        {
          "indexed": true,
          "internalType": "uint256",
          "name": "tokenId",
          "type": "uint256"
        }
      ],
      "name": "Approval",
      "type": "event"
    },
    {
      "anonymous": false,
      "inputs": [
        {
          "indexed": true,
          "internalType": "address",
          "name": "owner",
          "type": "address"
        },
        {
          "indexed": true,
          "internalType": "address",
          "name": "operator",
          "type": "address"
        },
        {
          "indexed": false,
          "internalType": "bool",
          "name": "approved",
          "type": "bool"
        }
      ],
      "name": "ApprovalForAll",
      "type": "event"
    },
    {
      "anonymous": false,
      "inputs": [
        {
          "indexed": true,
          "internalType": "address",
          "name": "previousOwner",
          "type": "address"
        },
        {
          "indexed": true,
          "internalType": "address",
          "name": "newOwner",
          "type": "address"
        }
      ],
      "name": "OwnershipTransferred",
      "type": "event"
    },
    {
      "anonymous": false,
      "inputs": [
        {
          "indexed": true,
          "internalType": "address",
          "name": "from",
          "type": "address"
        },
        {
          "indexed": true,
          "internalType": "address",
          "name": "to",
          "type": "address"
        },
        {
          "indexed": true,
          "internalType": "uint256",
          "name": "tokenId",
          "type": "uint256"
        }
      ],
      "name": "Transfer",
      "type": "event"
    },
    {
      "inputs": [
        {
          "internalType": "address",
          "name": "to",
          "type": "address"
        },
        {
          "internalType": "uint256",
          "name": "tokenId",
          "type": "uint256"
        }
      ],
      "name": "approve",
      "outputs": [],
      "stateMutability": "nonpayable",
      "type": "function"
    },
    {
      "inputs": [
        {
          "internalType": "address",
          "name": "owner",
          "type": "address"
        }
      ],
      "name": "balanceOf",
      "outputs": [
        {
          "internalType": "uint256",
          "name": "",
          "type": "uint256"
        }
      ],
      "stateMutability": "view",
      "type": "function"
    },
    {
      "inputs": [
        {
          "internalType": "uint256",
          "name": "tokenId",
          "type": "uint256"
        }
      ],
      "name": "getApproved",
      "outputs": [
        {
          "internalType": "address",
          "name": "",
          "type": "address"
        }
      ],
      "stateMutability": "view",
      "type": "function"
    },
    {
      "inputs": [
        {
          "internalType": "address",
          "name": "owner",
          "type": "address"
        },
        {
          "internalType": "address",
          "name": "operator",
          "type": "address"
        }
      ],
      "name": "isApprovedForAll",
      "outputs": [
        {
          "internalType": "bool",
          "name": "",
          "type": "bool"
        }
      ],
      "stateMutability": "view",
      "type": "function"
    },
    {
      "inputs": [],
      "name": "name",
      "outputs": [
        {
          "internalType": "string",
          "name": "",
          "type": "string"
        }
      ],
      "stateMutability": "view",
      "type": "function"
    },
    {
      "inputs": [],
      "name": "owner",
      "outputs": [
        {
          "internalType": "address",
          "name": "",
          "type": "address"
        }
      ],
      "stateMutability": "view",
      "type": "function"
    },
    {
      "inputs": [
        {
          "internalType": "uint256",
          "name": "tokenId",
          "type": "uint256"
        }
      ],
      "name": "ownerOf",
      "outputs": [
        {
          "internalType": "address",
          "name": "",
          "type": "address"
        }
      ],
      "stateMutability": "view",
      "type": "function"
    },
    {
      "inputs": [],
      "name": "renounceOwnership",
      "outputs": [],
      "stateMutability": "nonpayable",
      "type": "function"
    },
    {
      "inputs": [
        {
          "internalType": "address",
          "name": "to",
          "type": "address"
        },
        {
          "internalType": "uint256",
          "name": "number",
          "type": "uint256"
        }
      ],
      "name": "safeBatchMint",
      "outputs": [],
      "stateMutability": "nonpayable",
      "type": "function"
    },
    {
      "inputs": [
        {
          "internalType": "address",
          "name": "to",
          "type": "address"
        }
      ],
      "name": "safeMint",
      "outputs": [],
      "stateMutability": "nonpayable",
      "type": "function"
    },
    {
      "inputs": [
        {
          "internalType": "address",
          "name": "from",
          "type": "address"
        },
        {
          "internalType": "address",
          "name": "to",
          "type": "address"
        },
        {
          "internalType": "uint256",
          "name": "tokenId",
          "type": "uint256"
        }
      ],
      "name": "safeTransferFrom",
      "outputs": [],
      "stateMutability": "nonpayable",
      "type": "function"
    },
    {
      "inputs": [
        {
          "internalType": "address",
          "name": "from",
          "type": "address"
        },
        {
          "internalType": "address",
          "name": "to",
          "type": "address"
        },
        {
          "internalType": "uint256",
          "name": "tokenId",
          "type": "uint256"
        },
        {
          "internalType": "bytes",
          "name": "_data",
          "type": "bytes"
        }
      ],
      "name": "safeTransferFrom",
      "outputs": [],
      "stateMutability": "nonpayable",
      "type": "function"
    },
    {
      "inputs": [
        {
          "internalType": "address",
          "name": "operator",
          "type": "address"
        },
        {
          "internalType": "bool",
          "name": "approved",
          "type": "bool"
        }
      ],
      "name": "setApprovalForAll",
      "outputs": [],
      "stateMutability": "nonpayable",
      "type": "function"
    },
    {
      "inputs": [
        {
          "internalType": "bytes4",
          "name": "interfaceId",
          "type": "bytes4"
        }
      ],
      "name": "supportsInterface",
      "outputs": [
        {
          "internalType": "bool",
          "name": "",
          "type": "bool"
        }
      ],
      "stateMutability": "view",
      "type": "function"
    },
    {
      "inputs": [],
      "name": "symbol",
      "outputs": [
        {
          "internalType": "string",
          "name": "",
          "type": "string"
        }
      ],
      "stateMutability": "view",
      "type": "function"
    },
    {
      "inputs": [
        {
          "internalType": "uint256",
          "name": "index",
          "type": "uint256"
        }
      ],
      "name": "tokenByIndex",
      "outputs": [
        {
          "internalType": "uint256",
          "name": "",
          "type": "uint256"
        }
      ],
      "stateMutability": "view",
      "type": "function"
    },
    {
      "inputs": [
        {
          "internalType": "address",
          "name": "owner",
          "type": "address"
        },
        {
          "internalType": "uint256",
          "name": "index",
          "type": "uint256"
        }
      ],
      "name": "tokenOfOwnerByIndex",
      "outputs": [
        {
          "internalType": "uint256",
          "name": "",
          "type": "uint256"
        }
      ],
      "stateMutability": "view",
      "type": "function"
    },
    {
      "inputs": [
        {
          "internalType": "uint256",
          "name": "tokenId",
          "type": "uint256"
        }
      ],
      "name": "tokenURI",
      "outputs": [
        {
          "internalType": "string",
          "name": "",
          "type": "string"
        }
      ],
      "stateMutability": "view",
      "type": "function"
    },
    {
      "inputs": [],
      "name": "totalSupply",
      "outputs": [
        {
          "internalType": "uint256",
          "name": "",
          "type": "uint256"
        }
      ],
      "stateMutability": "view",
      "type": "function"
    },
    {
      "inputs": [
        {
          "internalType": "address",
          "name": "from",
          "type": "address"
        },
        {
          "internalType": "address",
          "name": "to",
          "type": "address"
        },
        {
          "internalType": "uint256",
          "name": "tokenId",
          "type": "uint256"
        }
      ],
      "name": "transferFrom",
      "outputs": [],
      "stateMutability": "nonpayable",
      "type": "function"
    },
    {
      "inputs": [
        {
          "internalType": "address",
          "name": "newOwner",
          "type": "address"
        }
      ],
      "name": "transferOwnership",
      "outputs": [],
      "stateMutability": "nonpayable",
      "type": "function"
    }
  ],
  "bytecode": "0x60806040523480156200001157600080fd5b5060405162003a1a38038062003a1a83398181016040528101906200003791906200029f565b82828160009080519060200190620000519291906200017d565b5080600190805190602001906200006a9291906200017d565b5050506200008d62000081620000af60201b60201c565b620000b760201b60201c565b80600c9080519060200190620000a59291906200017d565b50505050620004b0565b600033905090565b6000600a60009054906101000a900473ffffffffffffffffffffffffffffffffffffffff16905081600a60006101000a81548173ffffffffffffffffffffffffffffffffffffffff021916908373ffffffffffffffffffffffffffffffffffffffff1602179055508173ffffffffffffffffffffffffffffffffffffffff168173ffffffffffffffffffffffffffffffffffffffff167f8be0079c531659141344cd1fd0a4f28419497f9722a3daafe3b4186f6b6457e060405160405180910390a35050565b8280546200018b90620003d5565b90600052602060002090601f016020900481019282620001af5760008555620001fb565b82601f10620001ca57805160ff1916838001178555620001fb565b82800160010185558215620001fb579182015b82811115620001fa578251825591602001919060010190620001dd565b5b5090506200020a91906200020e565b5090565b5b80821115620002295760008160009055506001016200020f565b5090565b6000620002446200023e8462000369565b62000340565b9050828152602081018484840111156200025d57600080fd5b6200026a8482856200039f565b509392505050565b600082601f8301126200028457600080fd5b8151620002968482602086016200022d565b91505092915050565b600080600060608486031215620002b557600080fd5b600084015167ffffffffffffffff811115620002d057600080fd5b620002de8682870162000272565b935050602084015167ffffffffffffffff811115620002fc57600080fd5b6200030a8682870162000272565b925050604084015167ffffffffffffffff8111156200032857600080fd5b620003368682870162000272565b9150509250925092565b60006200034c6200035f565b90506200035a82826200040b565b919050565b6000604051905090565b600067ffffffffffffffff82111562000387576200038662000470565b5b62000392826200049f565b9050602081019050919050565b60005b83811015620003bf578082015181840152602081019050620003a2565b83811115620003cf576000848401525b50505050565b60006002820490506001821680620003ee57607f821691505b6020821081141562000405576200040462000441565b5b50919050565b62000416826200049f565b810181811067ffffffffffffffff8211171562000438576200043762000470565b5b80604052505050565b7f4e487b7100000000000000000000000000000000000000000000000000000000600052602260045260246000fd5b7f4e487b7100000000000000000000000000000000000000000000000000000000600052604160045260246000fd5b6000601f19601f8301169050919050565b61355a80620004c06000396000f3fe608060405234801561001057600080fd5b50600436106101375760003560e01c80636352211e116100b8578063a22cb4651161007c578063a22cb4651461034e578063b88d4fde1461036a578063c87b56dd14610386578063e985e9c5146103b6578063f2fde38b146103e6578063f9f499521461040257610137565b80636352211e146102a857806370a08231146102d8578063715018a6146103085780638da5cb5b1461031257806395d89b411461033057610137565b806323b872dd116100ff57806323b872dd146101f45780632f745c591461021057806340d097c31461024057806342842e0e1461025c5780634f6ccce71461027857610137565b806301ffc9a71461013c57806306fdde031461016c578063081812fc1461018a578063095ea7b3146101ba57806318160ddd146101d6575b600080fd5b6101566004803603810190610151919061253a565b61041e565b6040516101639190612986565b60405180910390f35b610174610430565b60405161018191906129a1565b60405180910390f35b6101a4600480360381019061019f919061258c565b6104c2565b6040516101b1919061291f565b60405180910390f35b6101d460048036038101906101cf91906124fe565b610547565b005b6101de61065f565b6040516101eb9190612c03565b60405180910390f35b61020e600480360381019061020991906123f8565b61066c565b005b61022a600480360381019061022591906124fe565b6106cc565b6040516102379190612c03565b60405180910390f35b61025a60048036038101906102559190612393565b610771565b005b610276600480360381019061027191906123f8565b610813565b005b610292600480360381019061028d919061258c565b610833565b60405161029f9190612c03565b60405180910390f35b6102c260048036038101906102bd919061258c565b6108ca565b6040516102cf919061291f565b60405180910390f35b6102f260048036038101906102ed9190612393565b61097c565b6040516102ff9190612c03565b60405180910390f35b610310610a34565b005b61031a610abc565b604051610327919061291f565b60405180910390f35b610338610ae6565b60405161034591906129a1565b60405180910390f35b610368600480360381019061036391906124c2565b610b78565b005b610384600480360381019061037f9190612447565b610b8e565b005b6103a0600480360381019061039b919061258c565b610bf0565b6040516103ad91906129a1565b60405180910390f35b6103d060048036038101906103cb91906123bc565b610c97565b6040516103dd9190612986565b60405180910390f35b61040060048036038101906103fb9190612393565b610d2b565b005b61041c600480360381019061041791906124fe565b610e23565b005b600061042982610ee5565b9050919050565b60606000805461043f90612e28565b80601f016020809104026020016040519081016040528092919081815260200182805461046b90612e28565b80156104b85780601f1061048d576101008083540402835291602001916104b8565b820191906000526020600020905b81548152906001019060200180831161049b57829003601f168201915b5050505050905090565b60006104cd82610f5f565b61050c576040517f08c379a000000000000000000000000000000000000000000000000000000000815260040161050390612b43565b60405180910390fd5b6004600083815260200190815260200160002060009054906101000a900473ffffffffffffffffffffffffffffffffffffffff169050919050565b6000610552826108ca565b90508073ffffffffffffffffffffffffffffffffffffffff168373ffffffffffffffffffffffffffffffffffffffff1614156105c3576040517f08c379a00000000000000000000000000000000000000000000000000000000081526004016105ba90612ba3565b60405180910390fd5b8073ffffffffffffffffffffffffffffffffffffffff166105e2610fcb565b73ffffffffffffffffffffffffffffffffffffffff16148061061157506106108161060b610fcb565b610c97565b5b610650576040517f08c379a000000000000000000000000000000000000000000000000000000000815260040161064790612ac3565b60405180910390fd5b61065a8383610fd3565b505050565b6000600880549050905090565b61067d610677610fcb565b8261108c565b6106bc576040517f08c379a00000000000000000000000000000000000000000000000000000000081526004016106b390612bc3565b60405180910390fd5b6106c783838361116a565b505050565b60006106d78361097c565b8210610718576040517f08c379a000000000000000000000000000000000000000000000000000000000815260040161070f906129c3565b60405180910390fd5b600660008473ffffffffffffffffffffffffffffffffffffffff1673ffffffffffffffffffffffffffffffffffffffff168152602001908152602001600020600083815260200190815260200160002054905092915050565b610779610fcb565b73ffffffffffffffffffffffffffffffffffffffff16610797610abc565b73ffffffffffffffffffffffffffffffffffffffff16146107ed576040517f08c379a00000000000000000000000000000000000000000000000000000000081526004016107e490612b63565b60405180910390fd5b60006107f9600b6113d1565b9050610805600b6113df565b61080f82826113f5565b5050565b61082e83838360405180602001604052806000815250610b8e565b505050565b600061083d61065f565b821061087e576040517f08c379a000000000000000000000000000000000000000000000000000000000815260040161087590612be3565b60405180910390fd5b600882815481106108b8577f4e487b7100000000000000000000000000000000000000000000000000000000600052603260045260246000fd5b90600052602060002001549050919050565b6000806002600084815260200190815260200160002060009054906101000a900473ffffffffffffffffffffffffffffffffffffffff169050600073ffffffffffffffffffffffffffffffffffffffff168173ffffffffffffffffffffffffffffffffffffffff161415610973576040517f08c379a000000000000000000000000000000000000000000000000000000000815260040161096a90612b03565b60405180910390fd5b80915050919050565b60008073ffffffffffffffffffffffffffffffffffffffff168273ffffffffffffffffffffffffffffffffffffffff1614156109ed576040517f08c379a00000000000000000000000000000000000000000000000000000000081526004016109e490612ae3565b60405180910390fd5b600360008373ffffffffffffffffffffffffffffffffffffffff1673ffffffffffffffffffffffffffffffffffffffff168152602001908152602001600020549050919050565b610a3c610fcb565b73ffffffffffffffffffffffffffffffffffffffff16610a5a610abc565b73ffffffffffffffffffffffffffffffffffffffff1614610ab0576040517f08c379a0000000000000000000000000000000000000000000000000000000008152600401610aa790612b63565b60405180910390fd5b610aba6000611413565b565b6000600a60009054906101000a900473ffffffffffffffffffffffffffffffffffffffff16905090565b606060018054610af590612e28565b80601f0160208091040260200160405190810160405280929190818152602001828054610b2190612e28565b8015610b6e5780601f10610b4357610100808354040283529160200191610b6e565b820191906000526020600020905b815481529060010190602001808311610b5157829003601f168201915b5050505050905090565b610b8a610b83610fcb565b83836114d9565b5050565b610b9f610b99610fcb565b8361108c565b610bde576040517f08c379a0000000000000000000000000000000000000000000000000000000008152600401610bd590612bc3565b60405180910390fd5b610bea84848484611646565b50505050565b6060610bfb82610f5f565b610c3a576040517f08c379a0000000000000000000000000000000000000000000000000000000008152600401610c3190612b83565b60405180910390fd5b6000610c446116a2565b90506000815111610c645760405180602001604052806000815250610c8f565b80610c6e84611734565b604051602001610c7f9291906128fb565b6040516020818303038152906040525b915050919050565b6000600560008473ffffffffffffffffffffffffffffffffffffffff1673ffffffffffffffffffffffffffffffffffffffff16815260200190815260200160002060008373ffffffffffffffffffffffffffffffffffffffff1673ffffffffffffffffffffffffffffffffffffffff16815260200190815260200160002060009054906101000a900460ff16905092915050565b610d33610fcb565b73ffffffffffffffffffffffffffffffffffffffff16610d51610abc565b73ffffffffffffffffffffffffffffffffffffffff1614610da7576040517f08c379a0000000000000000000000000000000000000000000000000000000008152600401610d9e90612b63565b60405180910390fd5b600073ffffffffffffffffffffffffffffffffffffffff168173ffffffffffffffffffffffffffffffffffffffff161415610e17576040517f08c379a0000000000000000000000000000000000000000000000000000000008152600401610e0e90612a03565b60405180910390fd5b610e2081611413565b50565b610e2b610fcb565b73ffffffffffffffffffffffffffffffffffffffff16610e49610abc565b73ffffffffffffffffffffffffffffffffffffffff1614610e9f576040517f08c379a0000000000000000000000000000000000000000000000000000000008152600401610e9690612b63565b60405180910390fd5b60005b81811015610ee0576000610eb6600b6113d1565b9050610ec2600b6113df565b610ecc84826113f5565b508080610ed890612e8b565b915050610ea2565b505050565b60007f780e9d63000000000000000000000000000000000000000000000000000000007bffffffffffffffffffffffffffffffffffffffffffffffffffffffff1916827bffffffffffffffffffffffffffffffffffffffffffffffffffffffff19161480610f585750610f57826118e1565b5b9050919050565b60008073ffffffffffffffffffffffffffffffffffffffff166002600084815260200190815260200160002060009054906101000a900473ffffffffffffffffffffffffffffffffffffffff1673ffffffffffffffffffffffffffffffffffffffff1614159050919050565b600033905090565b816004600083815260200190815260200160002060006101000a81548173ffffffffffffffffffffffffffffffffffffffff021916908373ffffffffffffffffffffffffffffffffffffffff160217905550808273ffffffffffffffffffffffffffffffffffffffff16611046836108ca565b73ffffffffffffffffffffffffffffffffffffffff167f8c5be1e5ebec7d5bd14f71427d1e84f3dd0314c0f7b2291e5b200ac8c7c3b92560405160405180910390a45050565b600061109782610f5f565b6110d6576040517f08c379a00000000000000000000000000000000000000000000000000000000081526004016110cd90612aa3565b60405180910390fd5b60006110e1836108ca565b90508073ffffffffffffffffffffffffffffffffffffffff168473ffffffffffffffffffffffffffffffffffffffff16148061115057508373ffffffffffffffffffffffffffffffffffffffff16611138846104c2565b73ffffffffffffffffffffffffffffffffffffffff16145b8061116157506111608185610c97565b5b91505092915050565b8273ffffffffffffffffffffffffffffffffffffffff1661118a826108ca565b73ffffffffffffffffffffffffffffffffffffffff16146111e0576040517f08c379a00000000000000000000000000000000000000000000000000000000081526004016111d790612a23565b60405180910390fd5b600073ffffffffffffffffffffffffffffffffffffffff168273ffffffffffffffffffffffffffffffffffffffff161415611250576040517f08c379a000000000000000000000000000000000000000000000000000000000815260040161124790612a63565b60405180910390fd5b61125b8383836119c3565b611266600082610fd3565b6001600360008573ffffffffffffffffffffffffffffffffffffffff1673ffffffffffffffffffffffffffffffffffffffff16815260200190815260200160002060008282546112b69190612d3e565b925050819055506001600360008473ffffffffffffffffffffffffffffffffffffffff1673ffffffffffffffffffffffffffffffffffffffff168152602001908152602001600020600082825461130d9190612cb7565b92505081905550816002600083815260200190815260200160002060006101000a81548173ffffffffffffffffffffffffffffffffffffffff021916908373ffffffffffffffffffffffffffffffffffffffff160217905550808273ffffffffffffffffffffffffffffffffffffffff168473ffffffffffffffffffffffffffffffffffffffff167fddf252ad1be2c89b69c2b068fc378daa952ba7f163c4a11628f55a4df523b3ef60405160405180910390a46113cc8383836119d3565b505050565b600081600001549050919050565b6001816000016000828254019250508190555050565b61140f8282604051806020016040528060008152506119d8565b5050565b6000600a60009054906101000a900473ffffffffffffffffffffffffffffffffffffffff16905081600a60006101000a81548173ffffffffffffffffffffffffffffffffffffffff021916908373ffffffffffffffffffffffffffffffffffffffff1602179055508173ffffffffffffffffffffffffffffffffffffffff168173ffffffffffffffffffffffffffffffffffffffff167f8be0079c531659141344cd1fd0a4f28419497f9722a3daafe3b4186f6b6457e060405160405180910390a35050565b8173ffffffffffffffffffffffffffffffffffffffff168373ffffffffffffffffffffffffffffffffffffffff161415611548576040517f08c379a000000000000000000000000000000000000000000000000000000000815260040161153f90612a83565b60405180910390fd5b80600560008573ffffffffffffffffffffffffffffffffffffffff1673ffffffffffffffffffffffffffffffffffffffff16815260200190815260200160002060008473ffffffffffffffffffffffffffffffffffffffff1673ffffffffffffffffffffffffffffffffffffffff16815260200190815260200160002060006101000a81548160ff0219169083151502179055508173ffffffffffffffffffffffffffffffffffffffff168373ffffffffffffffffffffffffffffffffffffffff167f17307eab39ab6107e8899845ad3d59bd9653f200f220920489ca2b5937696c31836040516116399190612986565b60405180910390a3505050565b61165184848461116a565b61165d84848484611a33565b61169c576040517f08c379a0000000000000000000000000000000000000000000000000000000008152600401611693906129e3565b60405180910390fd5b50505050565b6060600c80546116b190612e28565b80601f01602080910402602001604051908101604052809291908181526020018280546116dd90612e28565b801561172a5780601f106116ff5761010080835404028352916020019161172a565b820191906000526020600020905b81548152906001019060200180831161170d57829003601f168201915b5050505050905090565b6060600082141561177c576040518060400160405280600181526020017f300000000000000000000000000000000000000000000000000000000000000081525090506118dc565b600082905060005b600082146117ae57808061179790612e8b565b915050600a826117a79190612d0d565b9150611784565b60008167ffffffffffffffff8111156117f0577f4e487b7100000000000000000000000000000000000000000000000000000000600052604160045260246000fd5b6040519080825280601f01601f1916602001820160405280156118225781602001600182028036833780820191505090505b5090505b600085146118d55760018261183b9190612d3e565b9150600a8561184a9190612ed4565b60306118569190612cb7565b60f81b818381518110611892577f4e487b7100000000000000000000000000000000000000000000000000000000600052603260045260246000fd5b60200101907effffffffffffffffffffffffffffffffffffffffffffffffffffffffffffff1916908160001a905350600a856118ce9190612d0d565b9450611826565b8093505050505b919050565b60007f80ac58cd000000000000000000000000000000000000000000000000000000007bffffffffffffffffffffffffffffffffffffffffffffffffffffffff1916827bffffffffffffffffffffffffffffffffffffffffffffffffffffffff191614806119ac57507f5b5e139f000000000000000000000000000000000000000000000000000000007bffffffffffffffffffffffffffffffffffffffffffffffffffffffff1916827bffffffffffffffffffffffffffffffffffffffffffffffffffffffff1916145b806119bc57506119bb82611bca565b5b9050919050565b6119ce838383611c34565b505050565b505050565b6119e28383611d48565b6119ef6000848484611a33565b611a2e576040517f08c379a0000000000000000000000000000000000000000000000000000000008152600401611a25906129e3565b60405180910390fd5b505050565b6000611a548473ffffffffffffffffffffffffffffffffffffffff16611f22565b15611bbd578373ffffffffffffffffffffffffffffffffffffffff1663150b7a02611a7d610fcb565b8786866040518563ffffffff1660e01b8152600401611a9f949392919061293a565b602060405180830381600087803b158015611ab957600080fd5b505af1925050508015611aea57506040513d601f19601f82011682018060405250810190611ae79190612563565b60015b611b6d573d8060008114611b1a576040519150601f19603f3d011682016040523d82523d6000602084013e611b1f565b606091505b50600081511415611b65576040517f08c379a0000000000000000000000000000000000000000000000000000000008152600401611b5c906129e3565b60405180910390fd5b805181602001fd5b63150b7a0260e01b7bffffffffffffffffffffffffffffffffffffffffffffffffffffffff1916817bffffffffffffffffffffffffffffffffffffffffffffffffffffffff191614915050611bc2565b600190505b949350505050565b60007f01ffc9a7000000000000000000000000000000000000000000000000000000007bffffffffffffffffffffffffffffffffffffffffffffffffffffffff1916827bffffffffffffffffffffffffffffffffffffffffffffffffffffffff1916149050919050565b611c3f838383611f45565b600073ffffffffffffffffffffffffffffffffffffffff168373ffffffffffffffffffffffffffffffffffffffff161415611c8257611c7d81611f4a565b611cc1565b8173ffffffffffffffffffffffffffffffffffffffff168373ffffffffffffffffffffffffffffffffffffffff1614611cc057611cbf8382611f93565b5b5b600073ffffffffffffffffffffffffffffffffffffffff168273ffffffffffffffffffffffffffffffffffffffff161415611d0457611cff81612100565b611d43565b8273ffffffffffffffffffffffffffffffffffffffff168273ffffffffffffffffffffffffffffffffffffffff1614611d4257611d418282612243565b5b5b505050565b600073ffffffffffffffffffffffffffffffffffffffff168273ffffffffffffffffffffffffffffffffffffffff161415611db8576040517f08c379a0000000000000000000000000000000000000000000000000000000008152600401611daf90612b23565b60405180910390fd5b611dc181610f5f565b15611e01576040517f08c379a0000000000000000000000000000000000000000000000000000000008152600401611df890612a43565b60405180910390fd5b611e0d600083836119c3565b6001600360008473ffffffffffffffffffffffffffffffffffffffff1673ffffffffffffffffffffffffffffffffffffffff1681526020019081526020016000206000828254611e5d9190612cb7565b92505081905550816002600083815260200190815260200160002060006101000a81548173ffffffffffffffffffffffffffffffffffffffff021916908373ffffffffffffffffffffffffffffffffffffffff160217905550808273ffffffffffffffffffffffffffffffffffffffff16600073ffffffffffffffffffffffffffffffffffffffff167fddf252ad1be2c89b69c2b068fc378daa952ba7f163c4a11628f55a4df523b3ef60405160405180910390a4611f1e600083836119d3565b5050565b6000808273ffffffffffffffffffffffffffffffffffffffff163b119050919050565b505050565b6008805490506009600083815260200190815260200160002081905550600881908060018154018082558091505060019003906000526020600020016000909190919091505550565b60006001611fa08461097c565b611faa9190612d3e565b905060006007600084815260200190815260200160002054905081811461208f576000600660008673ffffffffffffffffffffffffffffffffffffffff1673ffffffffffffffffffffffffffffffffffffffff168152602001908152602001600020600084815260200190815260200160002054905080600660008773ffffffffffffffffffffffffffffffffffffffff1673ffffffffffffffffffffffffffffffffffffffff168152602001908152602001600020600084815260200190815260200160002081905550816007600083815260200190815260200160002081905550505b6007600084815260200190815260200160002060009055600660008573ffffffffffffffffffffffffffffffffffffffff1673ffffffffffffffffffffffffffffffffffffffff16815260200190815260200160002060008381526020019081526020016000206000905550505050565b600060016008805490506121149190612d3e565b905060006009600084815260200190815260200160002054905060006008838154811061216a577f4e487b7100000000000000000000000000000000000000000000000000000000600052603260045260246000fd5b9060005260206000200154905080600883815481106121b2577f4e487b7100000000000000000000000000000000000000000000000000000000600052603260045260246000fd5b906000526020600020018190555081600960008381526020019081526020016000208190555060096000858152602001908152602001600020600090556008805480612227577f4e487b7100000000000000000000000000000000000000000000000000000000600052603160045260246000fd5b6001900381819060005260206000200160009055905550505050565b600061224e8361097c565b905081600660008573ffffffffffffffffffffffffffffffffffffffff1673ffffffffffffffffffffffffffffffffffffffff168152602001908152602001600020600083815260200190815260200160002081905550806007600084815260200190815260200160002081905550505050565b60006122d56122d084612c43565b612c1e565b9050828152602081018484840111156122ed57600080fd5b6122f8848285612de6565b509392505050565b60008135905061230f816134c8565b92915050565b600081359050612324816134df565b92915050565b600081359050612339816134f6565b92915050565b60008151905061234e816134f6565b92915050565b600082601f83011261236557600080fd5b81356123758482602086016122c2565b91505092915050565b60008135905061238d8161350d565b92915050565b6000602082840312156123a557600080fd5b60006123b384828501612300565b91505092915050565b600080604083850312156123cf57600080fd5b60006123dd85828601612300565b92505060206123ee85828601612300565b9150509250929050565b60008060006060848603121561240d57600080fd5b600061241b86828701612300565b935050602061242c86828701612300565b925050604061243d8682870161237e565b9150509250925092565b6000806000806080858703121561245d57600080fd5b600061246b87828801612300565b945050602061247c87828801612300565b935050604061248d8782880161237e565b925050606085013567ffffffffffffffff8111156124aa57600080fd5b6124b687828801612354565b91505092959194509250565b600080604083850312156124d557600080fd5b60006124e385828601612300565b92505060206124f485828601612315565b9150509250929050565b6000806040838503121561251157600080fd5b600061251f85828601612300565b92505060206125308582860161237e565b9150509250929050565b60006020828403121561254c57600080fd5b600061255a8482850161232a565b91505092915050565b60006020828403121561257557600080fd5b60006125838482850161233f565b91505092915050565b60006020828403121561259e57600080fd5b60006125ac8482850161237e565b91505092915050565b6125be81612d72565b82525050565b6125cd81612d84565b82525050565b60006125de82612c74565b6125e88185612c8a565b93506125f8818560208601612df5565b61260181612fc1565b840191505092915050565b600061261782612c7f565b6126218185612c9b565b9350612631818560208601612df5565b61263a81612fc1565b840191505092915050565b600061265082612c7f565b61265a8185612cac565b935061266a818560208601612df5565b80840191505092915050565b6000612683602b83612c9b565b915061268e82612fd2565b604082019050919050565b60006126a6603283612c9b565b91506126b182613021565b604082019050919050565b60006126c9602683612c9b565b91506126d482613070565b604082019050919050565b60006126ec602583612c9b565b91506126f7826130bf565b604082019050919050565b600061270f601c83612c9b565b915061271a8261310e565b602082019050919050565b6000612732602483612c9b565b915061273d82613137565b604082019050919050565b6000612755601983612c9b565b915061276082613186565b602082019050919050565b6000612778602c83612c9b565b9150612783826131af565b604082019050919050565b600061279b603883612c9b565b91506127a6826131fe565b604082019050919050565b60006127be602a83612c9b565b91506127c98261324d565b604082019050919050565b60006127e1602983612c9b565b91506127ec8261329c565b604082019050919050565b6000612804602083612c9b565b915061280f826132eb565b602082019050919050565b6000612827602c83612c9b565b915061283282613314565b604082019050919050565b600061284a602083612c9b565b915061285582613363565b602082019050919050565b600061286d602f83612c9b565b91506128788261338c565b604082019050919050565b6000612890602183612c9b565b915061289b826133db565b604082019050919050565b60006128b3603183612c9b565b91506128be8261342a565b604082019050919050565b60006128d6602c83612c9b565b91506128e182613479565b604082019050919050565b6128f581612ddc565b82525050565b60006129078285612645565b91506129138284612645565b91508190509392505050565b600060208201905061293460008301846125b5565b92915050565b600060808201905061294f60008301876125b5565b61295c60208301866125b5565b61296960408301856128ec565b818103606083015261297b81846125d3565b905095945050505050565b600060208201905061299b60008301846125c4565b92915050565b600060208201905081810360008301526129bb818461260c565b905092915050565b600060208201905081810360008301526129dc81612676565b9050919050565b600060208201905081810360008301526129fc81612699565b9050919050565b60006020820190508181036000830152612a1c816126bc565b9050919050565b60006020820190508181036000830152612a3c816126df565b9050919050565b60006020820190508181036000830152612a5c81612702565b9050919050565b60006020820190508181036000830152612a7c81612725565b9050919050565b60006020820190508181036000830152612a9c81612748565b9050919050565b60006020820190508181036000830152612abc8161276b565b9050919050565b60006020820190508181036000830152612adc8161278e565b9050919050565b60006020820190508181036000830152612afc816127b1565b9050919050565b60006020820190508181036000830152612b1c816127d4565b9050919050565b60006020820190508181036000830152612b3c816127f7565b9050919050565b60006020820190508181036000830152612b5c8161281a565b9050919050565b60006020820190508181036000830152612b7c8161283d565b9050919050565b60006020820190508181036000830152612b9c81612860565b9050919050565b60006020820190508181036000830152612bbc81612883565b9050919050565b60006020820190508181036000830152612bdc816128a6565b9050919050565b60006020820190508181036000830152612bfc816128c9565b9050919050565b6000602082019050612c1860008301846128ec565b92915050565b6000612c28612c39565b9050612c348282612e5a565b919050565b6000604051905090565b600067ffffffffffffffff821115612c5e57612c5d612f92565b5b612c6782612fc1565b9050602081019050919050565b600081519050919050565b600081519050919050565b600082825260208201905092915050565b600082825260208201905092915050565b600081905092915050565b6000612cc282612ddc565b9150612ccd83612ddc565b9250827fffffffffffffffffffffffffffffffffffffffffffffffffffffffffffffffff03821115612d0257612d01612f05565b5b828201905092915050565b6000612d1882612ddc565b9150612d2383612ddc565b925082612d3357612d32612f34565b5b828204905092915050565b6000612d4982612ddc565b9150612d5483612ddc565b925082821015612d6757612d66612f05565b5b828203905092915050565b6000612d7d82612dbc565b9050919050565b60008115159050919050565b60007fffffffff0000000000000000000000000000000000000000000000000000000082169050919050565b600073ffffffffffffffffffffffffffffffffffffffff82169050919050565b6000819050919050565b82818337600083830152505050565b60005b83811015612e13578082015181840152602081019050612df8565b83811115612e22576000848401525b50505050565b60006002820490506001821680612e4057607f821691505b60208210811415612e5457612e53612f63565b5b50919050565b612e6382612fc1565b810181811067ffffffffffffffff82111715612e8257612e81612f92565b5b80604052505050565b6000612e9682612ddc565b91507fffffffffffffffffffffffffffffffffffffffffffffffffffffffffffffffff821415612ec957612ec8612f05565b5b600182019050919050565b6000612edf82612ddc565b9150612eea83612ddc565b925082612efa57612ef9612f34565b5b828206905092915050565b7f4e487b7100000000000000000000000000000000000000000000000000000000600052601160045260246000fd5b7f4e487b7100000000000000000000000000000000000000000000000000000000600052601260045260246000fd5b7f4e487b7100000000000000000000000000000000000000000000000000000000600052602260045260246000fd5b7f4e487b7100000000000000000000000000000000000000000000000000000000600052604160045260246000fd5b6000601f19601f8301169050919050565b7f455243373231456e756d657261626c653a206f776e657220696e646578206f7560008201527f74206f6620626f756e6473000000000000000000000000000000000000000000602082015250565b7f4552433732313a207472616e7366657220746f206e6f6e20455243373231526560008201527f63656976657220696d706c656d656e7465720000000000000000000000000000602082015250565b7f4f776e61626c653a206e6577206f776e657220697320746865207a65726f206160008201527f6464726573730000000000000000000000000000000000000000000000000000602082015250565b7f4552433732313a207472616e736665722066726f6d20696e636f72726563742060008201527f6f776e6572000000000000000000000000000000000000000000000000000000602082015250565b7f4552433732313a20746f6b656e20616c7265616479206d696e74656400000000600082015250565b7f4552433732313a207472616e7366657220746f20746865207a65726f2061646460008201527f7265737300000000000000000000000000000000000000000000000000000000602082015250565b7f4552433732313a20617070726f766520746f2063616c6c657200000000000000600082015250565b7f4552433732313a206f70657261746f7220717565727920666f72206e6f6e657860008201527f697374656e7420746f6b656e0000000000000000000000000000000000000000602082015250565b7f4552433732313a20617070726f76652063616c6c6572206973206e6f74206f7760008201527f6e6572206e6f7220617070726f76656420666f7220616c6c0000000000000000602082015250565b7f4552433732313a2062616c616e636520717565727920666f7220746865207a6560008201527f726f206164647265737300000000000000000000000000000000000000000000602082015250565b7f4552433732313a206f776e657220717565727920666f72206e6f6e657869737460008201527f656e7420746f6b656e0000000000000000000000000000000000000000000000602082015250565b7f4552433732313a206d696e7420746f20746865207a65726f2061646472657373600082015250565b7f4552433732313a20617070726f76656420717565727920666f72206e6f6e657860008201527f697374656e7420746f6b656e0000000000000000000000000000000000000000602082015250565b7f4f776e61626c653a2063616c6c6572206973206e6f7420746865206f776e6572600082015250565b7f4552433732314d657461646174613a2055524920717565727920666f72206e6f60008201527f6e6578697374656e7420746f6b656e0000000000000000000000000000000000602082015250565b7f4552433732313a20617070726f76616c20746f2063757272656e74206f776e6560008201527f7200000000000000000000000000000000000000000000000000000000000000602082015250565b7f4552433732313a207472616e736665722063616c6c6572206973206e6f74206f60008201527f776e6572206e6f7220617070726f766564000000000000000000000000000000602082015250565b7f455243373231456e756d657261626c653a20676c6f62616c20696e646578206f60008201527f7574206f6620626f756e64730000000000000000000000000000000000000000602082015250565b6134d181612d72565b81146134dc57600080fd5b50565b6134e881612d84565b81146134f357600080fd5b50565b6134ff81612d90565b811461350a57600080fd5b50565b61351681612ddc565b811461352157600080fd5b5056fea26469706673582212208167859944326a8e20afc67a4ec0dbd1ae46a761bd080ea11748934ebbed827e64736f6c63430008040033",
  "linkReferences": {},
  "deployedLinkReferences": {}
}